:10100000FFFFFFFFFFFFFFFFFFFFFFFFFFFFFFFFF0
:2010100028410020619A0000C9B90000C9B90000C9B90000C9B90000C9B90000C9B9000030
:1C103000C9B90000C9B90000C9B90000C9B90000C9B90000C9B90000A3BE000037
:20104C002DE9F04FADF1CC0D06F0B8F9B24D05F1280005F1500105F04BFEDFF8C082E8600E
:20106C0041460BF052FC0820ADF820000120ADF8220008A809F0B8FD9DF8240068700A982E
:20108C0005F134040021A86020460AF023F94FF47A720023A2492C6105F184000424009471
:2010AC0008F0BAF91F20012109F0D0FA012621468DF8AF100020ADF8700081468DF8AE60F4
:2010CC000DF1AE02ADF876900821ADF872104FF44871ADF8741040F20530ADF8781031462B
:2010EC0001F0ECFF40F2063002211CAA01F0E6FF05F168024FF442701B2101F0DFFF05F18B
:20110C00400240F207300E2101F0D8FF4FF4447031460DF1AF0201F0D1FF40F211300221AD
:20112C000DF1720201F0CAFF40F2123002211DAA01F0C4FF40F2133002210DF1760201F066
:20114C00BDFF4FF4457002211EAA01F0B7FFB849032009F045F80620A02109F077FA07206B
:20116C00A02109F073FA0820A02109F06FFA0920A02109F06BFACDF86C9037468DF8B060D6
:20118C0003208DF8B19021468DF8B2001BAA8DF8B3704FF4816009F025FA4FF480602CAA1A
:2011AC00394609F01FFA40F202400DF1B102394609F018FA40F203400DF1B202394609F044
:2011CC0011FA40F206400DF1B302394609F00AFA032009F0A7FB204609F0A4FBAF48B04AA4
:2011EC00132108F02BFFAF4C38461121621D05F0EDFA02200521224605F0E8FA0520224673
:20120C00014605F0E3FA0320132104F1280205F0DDFA04202246014605F0D8FA0620122174
:20122C0004F1160205F0D2FA042608209E4FADF82C003878ADF82E6080000C900BA809F019
:20124C00D3FC00280CBF0D9848469849486138B10AF014FB9548964A0621183008F0EEFE01
:20126C009448924988600AF081F9934E9349CDF80090642243F69823301D08F0CDF8904CDD
:20128C00484644218246207006F0AAFE08B14FF0010AA8465FEA0A0047D08A4D1F200222C4
:2012AC0029460BF0AFF900283DD029880806000C40EA2120782835D1102028802946022096
:2012CC0002460AF03FF970B30220294602460BF099F940B329880806000C40EA2120B0F531
:2012EC00805F1FD1484628802946022002460AF029F9C0B10220294602460BF083F990B1E6
:20130C0029880806000C50EA212028800BD10BF0FBF901200AE0C04620050020697C0000CD
:20132C0059C0000028800BF0EFF94846217810B141F0010020704846432106F051FEFE20FE
:20134C000DF17A0102220BF05DF918B3BDF87A00BDF87A1045F249460006000C40EA212017
:20136C008642ADF87A0015D1FF200DF17A0102220BF048F970B1BDF87A00BDF87A10000607
:20138C00000C40EA2120B0F5805FADF87A0008BF012600D04E460BF0B7F9207816B140F09B
:2013AC00020020707721484606F01AFE002843D0D0202DA901220BF025F900283AD09DF857
:2013CC00B400582836D1F5202DA901220BF01AF900282FD09DF8B40000282BD155208DF81C
:2013EC00B4002DA90122F4200AF0ACF810B3F4202DA901220BF006F9E0B19DF8B400552861
:20140C0018D1B6208DF8B4002DA90122E0200AF099F878B1F4202DA901220BF0F3F848B12F
:20142C009DF8B40030B90BF06FF9012005E0C04629C900000BF068F94846217810B141F098
:20144C000800207007F0DAFE18B1207840F00400207007F079F918B1207840F0100020705A
:20146C000AF01EFF184D88B308F038FB01200C2106F0B6FD291DFF20087001223091484638
:20148C000BF0C0F838B12879482804D10BF03CF9012006461FE00BF037F91BE0DC110020EF
:2014AC0060D200005CCC0000680900207C17002054D20000E3C80000C82A002029C00000B6
:2014CC00482B00202C2B0020441A00200BF01CF9281D30904E46207816B140F02000207090
:2014EC0004F0D4FB061C01D007F0A2FB207816B140F04000207088F802007F2814BF0A2011
:20150C000F20052108F062FACC4C4FF4BD7604F16C004946761E00F8011BFAD108200426D3
:20152C00ADF838003B78ADF83A6098000F900EA809F05AFB00280CBF10984846A06038B183
:20154C000AF09CF9D04A04F10C00062108F076FD6068CE4910B90846143060600C46484669
:20156C004FF0640BA0814B46A4F806B04A466370CB4922714E460E7009F08BFD304609F0A1
:20158C0088FD05F1280005F11C0105F0B1FBC54968610BF0BAF9AE6104F024FD18B109F07D
:2015AC0041FECE48A8614846432106F019FD58B11020ADF87C001FA90220024609F0C2FF7D
:2015CC00C74908700BF0A0F802200A2101220AF0C5F9CDF80090C349E38804F118005A4643
:2015EC0007F01AFF04260820ADF844003B78ADF846609800129011A809F0F6FA00280CBFC7
:20160C0013984846CA4E706038B10AF037F9C94A08360521304608F011FD0AF04BFE4946C5
:20162C00DFF820A30091C4495A464FF47A730AF1080007F0F1FE03200AF014FE28B1D8F8D5
:20164C000C00BE49BE4A09F0D7FD08200426ADF850003B78ADF852609800159014A809F053
:20166C00C3FA00280CBF16984846D0498946886038B10AF003F9CE4A09F10C00052108F087
:20168C00DDFCCC4E301DC9F80400002333701846707008F0BDF9B878564660BB08F11C008B
:2016AC0097F801B097F803A0786218200AF0F6F85FEA00091FD0042100220AF02DFE584667
:2016CC000AF004F889F8080089F809A0002089F80A0007F14803C9F80C3007F15802C9F857
:2016EC00102007F12001C9F814100AF0E7F8D04A494608F093FD0C200AF0D0F8071C0BD0BA
:20170C00012104220AF0A1FF08F12000B8600AF0D5F8394609F044FDD8F80C00CE490BF03C
:20172C00F4F8CC4F386841F2883342F2107204F13C0A4FF47A71B1FBF0F189B22E91B3FBB4
:20174C00F0F12F91B2FBF0F031900820ADF808000A27ADF80A704FF0FF33039302A809F0BF
:20176C0043FA002840F09A8400201A900827ADF85C700923ADF85E3017A809F035FA199F42
:20178C0000281A9740F00A82BDF8600010280ED198F801009DF86210884208D13946087842
:2017AC00B02804D101F1080009790AF0F1F91A98002800F0F3810820ADF810000597032333
:2017CC00ADF8123004A809F00FFAE7E1D8F8107038460AF0AFFA874208BF002702D08768B7
:2017EC000AF0A4FB381C00F0D9813B785B1E00F021815B1E40F0C8817878BB78001F00F0C4
:20180C00A380C01E44D0801E0FD0001F40F0BC81012B06D0022B40F0B781C1480BF0CCF83F
:20182C00B2E1BF480BF0C6F8AEE1012B08D0022B40F0AA8107F01EFFA6E1C046500F00200E
:20184C00B6490DF186000A6849680260022341609DF887109DF886009DF889209DF88DC047
:20186C00009300EB01209DF88B309DF8881001EB02219DF88A2002EB03229DF88C3003EBA1
:20188C000C2308F0C9FE7FE178D200000C130020012B09D07BBBA34900200AF06BFB2AE0B4
:2018AC00462B002099C20000424901200AF062FB08460078022817D09A49002008F048FF14
:2018CC00D8F80C000A210022814608F08FFF002248460F2108F08AFF0DE0C04629B9000050
:2018EC00242B002041C000000AF014FF48708D49002008F02DFF2F480078012840F0448180
:20190C002C49D8F80C0049788146490834BF002201220A2108F06AFF26484078800834BF2C
:20192C000022012248460F2108F060FF2CE1C046BC18002084D20000F57B000000600041D3
:20194C00030000816C1B00205B1E35D05B1E40F01B8102200DF1B50109F01CFE9DF8B5104A
:20196C00480000EBC1008346E080CC480BF03EF84FF0000908B14FF00109B9F1000F02D024
:20198C00C6480AF05BF82E980BFB00FBC34859460BF032F8C14859460BF02CF8B9F1000FCA
:2019AC0000F0F280BD480AF048FCEDE0601800206CD20000D41C00200AF0ACFE400928D3DB
:2019CC00A089FF2827D001200DF17E0109F0E2FDBDF87E0010F07F0F0FD0BDF87E00A0814A
:2019EC00022003F015FD0AF05BFC60B12F9806F01BFABDF87E00A08105E0BDF87E00A081F3
:201A0C00002003F005FDCE4A0120022107F08EF906E0FF20A0810120FF21022209F09EFFAA
:201A2C0000204FF4BD72014609F098FFACE0C04635C9000097F801904846401E74D0401EF3
:201A4C0054D0801E012865D9801E07D0801E58D098E0C04640D30000697C0000B7480AF0A7
:201A6C00D9FC10B9B5480AF0A5FFD8F80C000A210022834608F0BAFE002258460F2108F097
:201A8C00B5FE00225846152108F0B0FE40F2163020A903F015FA40F213300DF1820103F0BF
:201AAC000FFA4FF4467021A903F00AFA9DF880009DF88220BDF880308DF89E00BDF882103C
:201ACC008DF8A02018129DF884308DF89F0008128DF8A100BDF884208DF8A23010128DF887
:201AEC00A3000DF19E0009F08DFC4BE093480AF091FC10B991480AF05DFF00200AF0B2FACE
:201B0C0040E00AF0E1FBD8F80C000A21012208F06DFE37E00AF0D8FB34E0C046F216002010
:201B2C00CC2A0020D51C00200F20052107F04EFF4FF441700DF18E0103F0C2F99DF88F3056
:201B4C008DF897309DF890208DF8982000218DF89A109DF88E008DF896000B469DF8932084
:201B6C008DF8993000208DF89D209DF892109DF891308DF89C100DF196028DF89B300821DC
:201B8C0004F024FE88F800900820ADF8180007970523ADF81A3006A809F026F8D8F81000D4
:201BAC000AF05AFD00283FF411AE7078810808D320F0020098F800707070062F01D106F073
:201BCC0087FF3078B178884233D009F07FFCB7783078790803D341083CBF0021B180B908DC
:201BEC0003D381083CBF0021F18098F80010022903D10AF037FAB7783078B90809D3810826
:201C0C0007D298F80010062903D006F061FFB778307810F0030F0CD05FB9A6480AF0FAFB2D
:201C2C0030B9A4480AF0C6FE0020F0800746B7803078B070A0480778002F00F01F8294F975
:201C4C0000001E2880F20E82B0F1FF3F00F00682A18901F07F0211F07F0F329200F0FB817E
:201C6C0000208DF8B6000AF01BFBC8B10120682106F0B6F958B13A200DF1B60101220AF0F0
:201C8C00C1FC10B900208DF8B6000AF03DFD9DF8B6109DF8B600E17006E0C04624130020E9
:201CAC000AF032FD0020E070C1490F781FB96178022940F007812179C20943D240084CD379
:201CCC0094F90010880000EBC10087B20AF0E8FA0AEB070B98B10120682106F081F980B177
:201CEC004320594606220AF08DFC81460AF00CFDB9F1000F05D058460AF0F0FA01E00AF076
:201D0C0003FD0AF0CDFAA8B10120682106F068F918B357443B200622BF1D39460AF072FCF0
:201D2C0081460AF0F1FCB9F1000F16D038460AF0D5FA12E00AF0E8FC0FE0C046A405002075
:201D4C0018130020491CC8B20228207105D1E08842F21071B1FBF0F02061677894490020B6
:201D6C00022F087040F0AE80A089C009C0F0AA800AF096FA002800F0A18000206870682140
:201D8C00012006F02DF922200DF1B70101228DF8B700372009F0D6FB08B9052068700AF0CA
:201DAC00B3FC6F78002F40F08D8001200C2106F017F902200DF1B70101220AF023FC002885
:201DCC0042D09DF8B70040083CD303200DF1A60107220AF017FC98B39DF8AC0000092DD2B0
:201DEC009DF8A7109DF8A6009DF8A9209DF8A8709DF8AB3040EA012000B247EA02219DF8EF
:201E0C00AA70AAF80C0009B247EA0322B5F90870AAF80E1012B2B5F90A30AAF810207843BE
:201E2C0059430012B5F90C70AAF80C007A430812AAF80E001012AAF8100007E0032004E0C7
:201E4C00042002E0022000E00120687011208DF8B7000DF1B70101220A2009F073FB0AF0A4
:201E6C0053FC6F78052F20D067B30AF019FA38B307F034FE30B301200C2106F0B1F808B336
:201E8C0001203099287101220B2009F05BFB319805F0CAFF2878C00912D3112030992871AE
:201EAC0001220A2009F04EFB0AE000202061FF2767700FE0741B0020462B002006206870D2
:201ECC000AF022FC204627694078002F72D1012800F08280002020710127677004F082F885
:201EEC00002879D0A7780AF0DBF900285CD00120682106F075F800286ED009203099287126
:201F0C0001226B2009F01EFB00284DD007203099287101226C2009F015FB002844D0012012
:201F2C003099287101221D2009F00CFB00283BD04020309928710122382009F003FB002844
:201F4C0032D0C020309928710122692009F0FAFA50B330992F711F20012209F0F3FA18B319
:201F6C0006203099287101221E2009F0EBFAD8B129203099287101226B2009F0E3FA98B18D
:201F8C0055491C20012209F0DDFA68B130993A2001220AF037FB0AF0B7FB002028704D49E3
:201FAC00686908F099FE17E00AF0AEFB14E0C046472B0020022809D00220607000272771DB
:201FCC0004F010F810B1329804F046F9A089000A02D32069401E206194F900000A210A22E7
:201FEC0090FBF1F15143471A35D1114690FBF1F18FB2114690FBF1F080B20AEB400000F549
:20200C00B47007F0EDFA354803780AEB870707F5B77907F5B877CBB10020432105F0E0FF0C
:20202C00B8B107F04DFF2D4908700AF06DFB2B482A4B41880806000C40EA21209988A9F8A0
:20204C0000000806000C40EA2120388023490120087094F90000401C40B20BE020480AF00A
:20206C00ABFC0BE000204FF4BD71524606F05EFE4FF0FF301B492070002008701A4807786C
:20208C0067B101460020087008F0B0F917494978814203DD1549487005F08EFEB8F804008D
:2020AC00C108FFF452AB20F0040098F80070A8F80400022F7FF449AB0D480AF07BFC98F8B5
:2020CC00000002287FF441AB0F20012107F07EFCFFF73BBB07000680471A0020242B002040
:2020EC0024130020462B0020C82A00207C170020A40500202DE9F04F0120ADF14C0DADF84C
:20210C001A000827ADF8187006A808F06DFD00263546DA4C8DF84A509DF81C006070A670B0
:20212C000898E0614FF6FF70A082384609F0B6FB5FEA00080DD0012112220AF086FA09F0BD
:20214C00BDFB0DF14A010123D54A0091414608F083F89DF84A00DFF860934FF00108207023
:20216C0032463346494604F1A800CDF8008007F053F9022104F1CC003246334600914946B9
:20218C0007F04AF9042104F1F000324633460091494607F041F9042031461022E07004F19B
:2021AC00480005F049FB04F158003146102205F043FB2562267266720720E67204F14802B4
:2021CC001021A072022008F079FB04F158020320102108F073FB042004F12002014608F09F
:2021EC006DFB01E007F046FA0A20ADF80A00ADF808704FF0FF35039502A808F0F5FC002897
:20220C0040F0E28130460C90ADF824700925ADF8265009A808F0E8FCDDF82C900028CDF880
:20222C00309040F0D181BDF82800102840F0C08160789DF82A10884240F0BA814D462888AB
:20224C004FF6FF71814200F0AB812B78A23B00F08D812E3B40F0AC81A878B046002800F06C
:20226C005A81801E00F03581401E012840F20881801E00F0B980401E7FD0401E60D00838AF
:20228C0000F06581801E40F0678194F83E30A888052BADF834004BD001208DF83E00BF486D
:2022AC000AF08AFB94F83E00012820D004281ED003280DD002280BD00C98C188ADF83610B1
:2022CC000189ADF838104189ADF83A1080892BE0B4F84000B4F84250ADF83600B4F8443089
:2022EC00ADF83850B4F84600ADF83A301CE0B4F84000E9888842D8BF081CADF83600298939
:20230C00B4F842008842D8BF081CADF838006989B4F844008842D8BF081CADF83A00B4F86F
:20232C004610A889814200DC0146ADF83C1001E08DF83E60B14A0DA8122108F0A8FB0BE1C5
:20234C00AF480AF039FB6878002840F00581E888E082288920836889608390480AF05AF870
:20236C00002840F0F980A56A002D00F0F5802B68E08A218B628B9847EEE0B5F804A00A2021
:20238C0009F08CFA5FEA00080AD0012115220AF05CF9A8F808A009F091FA414608F000FF95
:2023AC00BD483146062205F047FAE68226836683A879607379480AF0FFFA91480AF0FCFACC
:2023CC004FF001084FF6FF706379A0824BB9A879082814BF04200520A070404609F05AFE9F
:2023EC00BAE00320A070B7E06878002840D1AA49281D02680A60808888800623A37068890B
:20240C00A082E889E082288A2083688A6083E878207394F83E00012818BF022808D11F2092
:20242C0007F0EEFD4FF47A7141435C4807F0C2FF95F803B0B5F80AA0142009F02FFA5FEA6A
:20244C00000800F08C80012114220AF0FEF888F808B02D1DC8F80C50A8F810A0042088F892
:20246C00120009F02BFA854A414607F0D7FE76E06878312869D12671042024E068090020E5
:20248C006878002861D1A878618AA278032815D02079657931B9012814BF6671267107E00F
:2024AC0049C60000054303D0774807F083FFA278072AE1D1062006E0A1C00000062A06D03E
:2024CC00207910B90320A07049E00220FBE70720F9E76878002838D1EB78A078E17993B9F5
:2024EC00022815D0072813D0062802D1617901290ED103280CD0644809F08CFF40B901207A
:20250C0009F0C8FD04E0654A404606F0AFFD68706878D0B920E06878B8B95C4A02201021AB
:20252C0008F0E6F95A4A0320102108F0E1F95C48ED1C29680160AB8883805A4A01252846E1
:20254C00A179A57006F092FD48B1A77007E0A8884B4A102108F082FAB8F1010F28D1606ADE
:20256C0030B3016821B3A078884721E0687913281ED12889012808D1A07B022805D1204806
:20258C000AF01AFA07F076F812E0052007F038FD01461B4807F00EFF0AE0C046340A00207D
:2025AC006888C00B04D33B4A0420014608F0A0F90C9848B1ADF810700320ADF81200CDF89B
:2025CC00149004A808F010FB208A65792179420830D320F0010055EA010320822AD08DB9F7
:2025EC003149207A8DF84000657A8DF841500A680DF142031A608988998006E02FC90000CA
:20260C00580A002003208DF84000A07AE57A1D4A8DF8480006218DF8495010A807F03CFA6D
:20262C00616A30B1A77021B1086810B1096838468847208A810807D31C4920F002002082E4
:20264C00304605F079F8208AC108FFF4CDAD20F00400A57B2082681E03D0401E3FF4C2AD83
:20266C00C2E501200090B4F84210B4F84420B4F84630B4F8400007F0CFFFB5E53BC600007A
:20268C0053C9000047C90000100A0020B0090020C009002088090020A0090020EF09002074
:2026AC0094090020D00900209A090020A60900202DE9F84F8046DD480122A0F130010A602F
:2026CC00D7490F68002FFCD0D74CD64AC02704F1040B1760DBF80010890804D22168090CCF
:2026EC0041F0F00100E07221E34AE44D4FF0000A82F85412A5F1D407C0F800A0A66838683B
:20270C003146C0F304601628A8BF203800EB2170401C162805DA10F10A0FB8BF6FF0090034
:20272C0000E01520E64AE74F00F01F0040F4F8501080386880083ABFE348C0F800A041F022
:20274C004061E24AA946C80E8F0EA9F13C0580F0010000F00100106087F0010000F0010028
:20276C0090602868C0F38367C0F38F21B00C22D246F3072000280BD542425046490805D174
:20278C007F0806BF0127391C4FF6FF71521EF5D1002810DD4FF6FF72490041F001018A4266
:2027AC0007D27F0047F001070F2F92BF01210F27111C401EF0D141EA0741182007F0E2FFC0
:2027CC0028682F68C34DC0F3870140F2FF32534607F0030041EA002188B22C210090A5F18C
:2027EC00400006F08FFF4D46A5F110073868C0F30D011C2007F0C6FFB54957F8080C0140CE
:20280C0000F07C400143142007F0BCFF57F80C1C01F47C000904090C0143102007F0B2FFB0
:20282C0057F8042CDBF80010C2F30350C2F30343490812D221680C0510EB247003D41028BA
:20284C00A8BF0F2000E05046090413EB217303D4102BA8BF0F2300E0534643EA001302F467
:20286C007F4002F0FF01B8F1220F40EA034041EA000124BF02F0804211430C2007F082FF99
:20288C00B8F1220F32BF01202868C0F30070914CB8F1220F4FEA400040F0200084F8090187
:2028AC0026BF2868C0F3407001208B4FB8F1200F40F0100084F8090138BF514606D3396893
:2028CC00C80C00F44070C1F384510143282007F059FFB8F1200F26BF3868C0F30150504619
:2028EC00B8F1220F4FEA400040F0600084F80C0126BF2868C0F3C0605046B8F1220F4FEA6F
:20290C00C00040F0800084F8010126BF2868C0F345505046B8F1200F4FEA800040F47C40E9
:20292C00A4F89C0138BF6D490AD3386801038A15920501F47C1100F00F00114341EA0031BD
:20294C00082007F01FFF4F464FF480002060A7F1D000816D40F20F226FF31F418A4213D923
:20296C0001680068C1F30363C0F3034003B15B1E072805D006280EBF0720801C00F00F007C
:20298C003D4943EA00100870C6F381435B1E02D05B1E27D022E03968880C1FD24FF480408D
:2029AC0020604F48D0F802204B0A03F0800322F08F021343C1F303321A43C0F80220D0F85E
:2029CC0001300A0A62F30303C0F80130026801F0E70322F0E70243EA020102E04FF0004190
:2029EC0020460160DBF80000C0F3C0030BB94020A0624FF4007020642868C0F3C14040F0EA
:202A0C00300084F8C800C6F381503A4E4FF04008B0B3401E0CD0401E29D0022128E0C04678
:202A2C009402224300600C40AC3F005040100940012009F0BBF805460420294606F0C6FCAC
:202A4C00042009F0B3F88542FAD12648056825F07F4008F011F930461430006803680721AA
:202A6C004FF06022280E98474FF4806020600321042006F0ABFC0AE0026008408C13005069
:202A8C000420012106F0A2FC174808F0F5F8203F38681649164B47F6180500F03F0084F848
:202AAC00CB0F32460D8018681068C168022088471248114FC0F8008001213960BDE8F88F40
:202ACC006E6208400000094094042A4300002043FCFCFC0040A00C409813005000803F4007
:202AEC000A600840A83F0050BD37860070B00C402C200940A00100109404604200600C40CF
:202B0C002DE9F04F09AFADF13C0D08900A92388809911E46ADF81800101C08BF002000F003
:202B2C008481002700F101094FF0FF3A4FF0010BB8466CE1252940F063811078521C0A9260
:202B4C002D2818BFADF8068005D15846551CADF8060010780A9530281CBF4246434605D141
:202B6C000A9908785A465B46491C0A912A28CDF80080554616D1306804930A99CDF808A08D
:202B8C00C01C4B1C20F00300001D306050F8044C0A93002C0878009418D5ADF806B06442C3
:202BAC00009413E044460AE0610001EBC4010918A1F130040A9908780094491C0A91302806
:202BCC0001DB3A28F0DBCDF808A004932E282BD10A9908782A2801F101010A9111D130680C
:202BEC00CDF80880C01C20F00300001D306050F8045C002D48BF454608782B46491C0A9188
:202C0C0011E0454643460AE0690001EBC5010918A1F130050A9908782B46491C0A913028CA
:202C2C0001DB3A28F0DB02930AB1224604926C2804D04C2818BFADF8048005D10A9908785C
:202C4C00ADF804B0491C0A910BA9CDF80C800FAB07916428059300F08B80692800F0888010
:202C6C00BDF818C0752872D078286ED06F286AD0702850D063283DD073281ED009980A9910
:202C8C000128A1F101010A9115D96B490C68B5F1FF3F03D0A84288BF6D1C00D8099D029534
:202CAC0008A80AA932466B46A0473F180A99039801F1010974E040462AE030680A99C01C09
:202CCC0020F00300001D306050F8040CBCF1000F01F10109014608B955A00146079109F043
:202CEC0011FB0390B5F1FF3F5BD0A842C4BF281C039056E03068C01C20F00300001D30606C
:202D0C0010F8040C5D468DF82C000A990395584601F1010945E0082035680490E81C20F0D4
:202D2C000300001D306050F8041C082210230FA805F0B2F8401E0790402101700A990798B3
:202D4C0001F1010929E0082302E0102300E00A230A99306801F10109C01C20F00300001DD2
:202D6C00306050F8041CAA42BCBF2A1C049210E00A99306801F10109C01C20F00300001DD9
:202D8C00306050F8041CAA42BCBF2A1C04926FF009030FA805F080F80790059D281A03904F
:202DAC00009C241ABDF8065000945DB906E008A8202109AA08F010FB009C7F1C641E00949E
:202DCC00F5D503980546401E039075B9BDF80600E8B10098401E009019D408A8202109AAAD
:202DEC0008F0FAFA00987F1CF4E70798411C0791017809AA08A808F0EFFA03987F1CE1E77E
:202E0C0008A809AA08F0E8FA7F1C09F101094A460A9812F8011C401C00290A907FF48AAEA7
:202E2C00089808B14146017038460FB0BDE8F08F286E756C6C2900C0B8D300002DE9FE4326
:202E4C00974C0F460546F80B80F00081B80880F0ED80B80F6ED2A07A00284FD138094FD386
:202E6C000025012665708F48267209F00BFC8E492A4604F1600009F07EFD6079012821D1B2
:202E8C00A079F8B9DFF82482E669D4F81490D8F8000078B109F0DCF9A0EB09004346000B31
:202EAC003618A0611868B6EBC01F24BF281CE0610AD2E66104F1BC004FF0005109F056F9A3
:202ECC00284619E06671284640F60903A38694F8413003F0F00343F0010384F84130E5865D
:202EEC0094F840302A4603F0F00384F84030704EA26304F134013160606118E0380914D22A
:202F0C00B80BC0F0C48004F1240009F051FD061C08D0706830B17568F068B6F91C100022A9
:202F2C002023A84727F40057B1E00020A07227F00807ACE0A968088840F60208804507D0EF
:202F4C000A8B4FF61F60104040F43470088306E00A8A4FF61F60104040F4347008826069A0
:202F6C00D0B1042008F022FEB0B109F071F96169814226BF401A401E401A000BE860E8689D
:202F8C00698A401840F6C411E860814203D340F2EE22824200D9E960AE699EB14548B042E1
:202FAC0010D094F8410010F00F0F0BD1698C08F10700884206D128466FF4807100224FF0A5
:202FCC000073B0473C4904F16000002209F0D3FCA07958B10220ADF80000684608F03AFAF4
:202FEC000026A671BDF80800A4F85C000120607020794FF00008401C207104F1200084F884
:20300C00078009F0D5FC002808BF47F0020702D0192009F03FFA6E692EB1414628464FF0FD
:20302C0080630A46B04727F0005730E004F12C05284609F0BDFC02F0E7FA284609F0B8FCA8
:20304C0027F0020708B147F0020720E009F086FB014604F1280009F0ABFC0646B569A808B3
:20306C0010D27EB125EA0500B061084609F080FC706850B12A46F068B6F91C1075680023CF
:20308C00A84702E0084609F073FC27F4804727B104F1BC00394609F069F8BDE8FE83C0462D
:2030AC00280D00203563000021B70000382B0020001004401371000009510000F8B5A0F24B
:2030CC00013517460E46022D40F214818A4A8B498B4B2D1F0F2D04D9143D4AD0AD1E1CD002
:2030EC0011E0DFE815F0C300BC00F400E400B300AB000701A2009A001000100092008800D4
:20310C0079006F006300282880F2F480022E40F0F180398807F09AFAF8BD012E40F0EA8087
:20312C0015462879012800F0E58051793878507181B9002800F0DE809078012800F0A980D4
:20314C00042800F0A680062800F0A380052800F0A080F8BD3878002840F0CC809078032867
:20316C0000F0A280072800F09F80052800F09C80F8BD012E40F0BE803878012840F0BA8025
:20318C00154605F1F00009F045F9002840F0B2802C46002004F13E0104F0CEFA002840F047
:2031AC00A98004F1CC0009F007FCF8BD022E40F0A18038880A28C0F29D80B0F5486F00F3D7
:2031CC00998015E0022E40F095803888B0F5FA7F80F290800880F8BD022E40F08B80388898
:2031EC000628C0F28780B0F5486F00F383801946891C0D4638E0022E7CD13888062879DB5C
:20320C00B0F5486F76DC1946F3E7012E72D1387806286FDA891F0D460EE0012E6AD138781F
:20322C00042867DA15460B3506E0012E62D1387808285FDA15460A352870F8BD012E59D1D9
:20324C003878042856DA1546093506E0012E51D1387804284EDC154608352946DBE7022E87
:20326C0048D13888154612352946B3E7012E41D11546687901283DD011793878107161B936
:20328C00002837D09078012803D0042818BF052830D1012008F0FEFEF8BD387850BB907831
:2032AC00022818BF052825D109F08CF8F8BD154605F1870400211F22204604F0BDFA3946DE
:2032CC003246204603F079FC0020EE710EE0154605F1680400211F22204604F0ADFA394690
:2032EC003246204603F069FC0120AE713146224605F0BCFEF8BDC04668090020AC0900209D
:20330C00A80900202DE9F04F0128ADF1140D40F0F280DFF81492D9F8DC00012840F0E98005
:20332C000220C9F8DC0009F0F5F80290012006F031FA20B101210646C9F8DC10D5E009F06E
:20334C00D1F803906E484FF00008C0F80080012008F02CFC012818BFCDF8008004D14046EF
:20336C0005F00EFD0120009066486E4CC0F800801934D4F8FF0F112009F0BAF900280CBFF9
:20338C0046460126102009F0B3F908B146F002060F2009F0ADF908B146F004060B2009F0B7
:2033AC00A7F930B1584800685849006B0246088890470A2009F09CF90028404618BF01205F
:2033CC004FF0805B0BF5DC7528B128685049006B0246088890474F480127076028688069BB
:2033EC00014646F0200088474B48076009F07AF900F001010191400815D2484809F0F4F8C7
:20340C008246BAF1040FF8D0BAF1010F06D1DBF8D8014068024641480321904740490868A7
:20342C0020F003000860404600F080F82868D4F8FF1F806B8047019801280ED0BAF1010F90
:20344C0006D1DBF8D801406802463448394690473349086840F0030008602A48076028682B
:20346C0040690146304688470B2009F041F928B128682649C06A0246088890470A2009F0D9
:20348C0037F928B128682249C06A024608889047204807600322C9F8DC201F4BC3F80080ED
:2034AC002868406B0146304688470128F8D1042006F070F9124807601A48D4F8FF1F01684E
:2034CC008909FCD30098012802D1384605F058FC09F002F9082006F05DF906460398C9F814
:2034EC00DC7007F087FA05F001F9029808F0A2F802E0042600E00126304605B0BDE8F08F7F
:20350C000C40094000022243B8010010B2CB0000AECB0000282008608001044300400340E9
:20352C002422084014100940C41400202DE9F84FDFF8ECB10746ABF13500DFF8D8A10068E5
:20354C00800880F0D78007F071FF79490831D1F8008000254FEA28725FEA985102F1010245
:20356C000AD2C0F13E0110F10A0F4FEAE101D8BF08218A42B8BF0A1C634BD3F87C11C1F35B
:20358C0004611629A8BF20391B68C3F30443162BA8BF203B99468918162905DA11F10A0F7F
:2035AC00B8BF6FF0090100E01521584B584E01F01F0242F4F8521A80326812F0030F18BF0F
:2035CC000125D20828BF45F002050FB145F00405524692F90730C31A052B04DA9379AB4280
:2035EC0008BF918866D0DFF830E10F28A0F10F0C25DB0CEB0013A3F1F00C4FEA2C26072E84
:20360C0088BF07263446062C88BF06245EF82470042303EB84037446E358DB1B03F0FF04A6
:20362C00EF0824BFC3F307273C44AF0824BFC3F307473C446F0828BF04EB136401E0002459
:20364C0026465EF826E0EF080EF0FF0324BFCEF307273B44AF0824BFCEF307473B446F08AF
:20366C0028BF03EB1E63A4B2ACEB0626A9EB01017443002904F1800403EB1423D8BF012102
:20368C00342408F0FF074C43A1B27943B1FBF3F14FF6FF738B4238BF191C802889B29180F6
:2036AC0005DA10F1800FB8BF6FF07F0000E07F20D0719571194800681F2910604FF00000B4
:2036CC0008D340F2FF128A4206D24908401C8A42FBD301E01F219180124F0F39090940EABE
:2036EC00C10047EA0001CBF8FB1F0026CBF8FF6FBDE8F88F0C490D4F524608200F60921DDC
:20370C001070BDE8F88FC0463C1100506E620840242208403C2B00209C13005008200940B1
:20372C003500094000E7A48030100940FDFDA400AC3F00502DE9F0411C4615468C4208BFF9
:20374C00854282BF00230022E5E0002C08BF002D0AD100290EBF00286FF000006FF0000173
:20376C0000F0E1F8BDE8F0815FF000085FF0000E002C08BF8D429CBF2C1C0025070C47EADC
:20378C0001470E0CB44208BFBD429EBF5FEA044444EA15445FEA0545070A47EA01670E0A35
:2037AC00B44208BFBD429EBF5FEA042444EA15645FEA0525470847EAC1774E08B44208BF8E
:2037CC00BD4200F29380870847EA81778E08B44208BFBD427CD8C70847EA4177CE08B442F7
:2037EC0008BFBD4266D8070947EA01770E09B44208BFBD4250D8470947EAC1674E09B4420F
:20380C0008BFBD423AD8870947EA81678E09B44208BFBD4224D8C70947EA4167CE09B44256
:20382C0008BFBD420DD8E60146EA5566EF01B14208BFB84201D3C01BB14158EB08085EEB1E
:20384C000E0EA60146EA95664FEA8517B14208BFB84201D3C01BB14158EB08084EEB0E0E9C
:20386C00660146EAD5666F01B14208BFB84201D3C01BB14158EB08084EEB0E0E260146EAA6
:20388C0015762F01B14208BFB84201D3C01BB14158EB08085EEB0E0EE60046EA5576EF0084
:2038AC00B14208BFB84201D3C01BB14158EB08084EEB0E0EA60046EA9576AF00B14208BFB5
:2038CC00B84201D3C01BB14158EB08084EEB0E0E660046EAD5766F00B14208BFB84201D3C1
:2038EC00C01BB14158EB08085EEB0E0EA14208BFA84201D3401BA14158EB08085EEB0E0EDA
:20390C00A34208BFAA423EBF2D0A45EA0465240A89D3734642461E4617460B46024631469B
:20392C003846BDE8F08170472DE9F04F754F1E46ADF1340D01914FEA960902923D680090A1
:20394C00710809F1020221F0010105EB8200091D0390901805EB80000490501805EB80031F
:20396C008018059305EB8000079026F0030000F1080802EB080005EB8003401808938018F7
:20398C0005EB80000990C6F39C008000083002EB4000411805EB800305EB810B0A93891852
:2039AC00831805EB8104404405EB8303C6F3990105EB80008900069038680B930A010021A5
:2039CC00803203F039FF4849DFF820A109682846AAF1880290470746B94518BF6FF0010078
:2039EC007ED128465546394605F1680290470198314608F073F8002818BF012070D102983F
:203A0C00314608F06BF8002818BF022068D103980199A84704980299A84700988168059806
:203A2C00A847334B0399059A20469946C847012802D1BD0066590EB1032051E0204600216C
:203A4C00424603F0F9FE0499059A2046C847012801D166590EB1042042E0274B254D0798F5
:203A6C0003991E462A46B047089804992A46B047079909980A46B0470A980999079AB047CB
:203A8C001E4D0B9807992A46B04720460021282203F0D2FE1A4B0A990B9A20469946C84770
:203AAC00203520462A460146C847089958460A46B04706980021424603F0BEFEFDB25846B0
:203ACC00002D0CBF0122FAB20021635C455CAB4218BF052004D1491C521EC9B2F5D100209E
:203AEC000DB0BDE8F08FC046484F0020355A01105D5D0110CC1B0020815F01101CCC0000D1
:203B0C0051650110444F00202DE9F843814608F0DDFD002100B901216B4E30680028FCD0F4
:203B2C006C4D01242D1DEF6A346009B108F0D4FDDFF89881C7F3072008F1BC01086008F0FA
:203B4C00C5FD002100B9214630680028FCD02F68346009B108F0C0FDC7F38440C8F8C00032
:203B6C0008F0B4FD0146002001B92046014630680028FCD0ED69346009B108F0ADFDC5F338
:203B8C008120C8F8D000B9F5C061C8F8B81000F0968098F8D80068B9C8F8D410D8F8C000CE
:203BAC00C8F8C800D8F8BC70C8F8C470D8F8D060C8F8CC60D8F8D410D8F8BC60002954BFB9
:203BCC0002206FF00100454605F1C8031A6801EB41014018411000EB917002EBA0021A60BD
:203BEC00D5F8C810C5F8C46000291CDD1E293DDDD5F8CC0030B93429B4BF15391E21C5F814
:203C0C00C81025E02A29BABFD5F8C8000B381E20C5F8C800D5F8C4003F28B4BF401C3F202E
:203C2C00C5F8C4001FE0D5F8CC00032812D011F10B0FC6BFD5F8C8000B30201CC5F8C80020
:203C4C00D5F8C4000028CCBF401E0020C5F8C400032009E011F1150FC6BFD5F8C800153084
:203C6C00201CC5F8C8000020C5F8CC00B5F8C400174E30214FF47F4208230090304605F07D
:203C8C0041FD009404214FF400321123304605F039FDB5F8C80004214FF4F802122300903B
:203CAC00304605F02FFDB5F8CC0020214FF440620A230090304605F025FDBDE8F883002038
:203CCC0088F8D800BDE8F88300800C40C414002000A00C4000A00C402DE9F04FADF1840D40
:203CEC0001F07EF905F0EAFC0026012804D108F059F9022808BF01265F490868C0F3815053
:203D0C00012806D151F80C0C0127010E07FA01F006435A48614F007807F12C00036805F076
:203D2C00CDFC03F07F03012804D108F03BF9022808BF5B1C524D2B602C463BB1FF2104F10A
:203D4C0040001F467F1E00F8011BFBD14D4800684FF0000900F0FF01FE291BD0DFF824C132
:203D6C0000F0FF0749460122FF2F0CD0BB427FD902FA07F73E427BD100F0FF0047EA090938
:203D8C00201880F840105CF8040F491C00F0FF07FE2FE9D1092002F08FF93A4800212422E2
:203DAC000823606017A808F00FFD4FF0010804F1240017AA8DF87480414607F095F8236818
:203DCC0043B3002794354FF0040BBA4608FA07F0064219D119EA000F04BF07F0FF0141F477
:203DEC00C04105D03819274990F8400051F82010254801F0DDFEF8B24FF0FF3107F0E4FEB4
:203E0C002368C5F800A001E0C5F800B07F1C2D1D9F42DBD301A800213022082308F098FC19
:203E2C000025FF20102101AB0990184A009504F1080006F02FFA0DA828220823294608F018
:203E4C00C9FC04F160000DAA1395114914952B4606F058FB0F4951F80D0C20F4F85040F4D6
:203E6C00005041F80D0C4746C1F8FF7F0A4E376021B0BDE8F08FC046B43F0050492B00200F
:203E8C00C02700201CCB0000007FC767F1BB0000519900000D300940080009401813005093
:203EAC002DE9F04F6C4CE2680746880FADF1140DC0F0C2805068406808B18047E268516827
:203ECC005F4E886808B9CD687DB13568002DFCD00022326010B18047E0684168C86800B171
:203EEC0080475E48503807F0B5FA4FF00008C6F80080544846F81C0C534808F0C3FB40F60D
:203F0C000A09A4F834906379A4F83680BD6894F84000C34604F1340A00F0F00084F840002B
:203F2C00012BC4F838B094F84100A5F8028000F0F00040F0010084F8410001D17B7C93B1DE
:203F4C00B8680088A9F10801814205D0298B4FF60F400840288304E0298A4FF60F400840C4
:203F6C00288287F811803948016883680193C368406B00911022694620F0784040F0805002
:203F8C0003903348029302F018FE494600E01D466B6813B118888142F9D1C5F804A0687B90
:203FAC0000F0F000687304F1200008F001FD80680088A9F10701814220D0491C81421DD055
:203FCC003B8CEBB197F82C0097F82D30C7F824B000F0F00087F82C0003F0F00040F0010099
:203FEC0087F82D0007F12002A2639AF80D00A7F8228000F0F0008AF80D0001E0C4F814806A
:20400C0030680028FCD0C6F80080012007F0CEFD012808D0687B00F0F00040F00100687317
:20402C000C4808F02FFBB9680A8A4FF6FF3010400882B86846F81C0C05B0BDE8F08FC04696
:20404C001C10044001010E04492E00004C130050180000210D880000280D00205100070629
:20406C002DE9FE4F83460D46DBF80800DBF8044000902868002800F0C08008F06FFBD4F81D
:20408C00881021B108F074FC03202874B5E001212974C4F8885008F06BFC6F6808F05EFB14
:2040AC00064694F8D80060B917F0704F03D117B1042006F041FE022006F03EFE012084F87F
:2040CC00D800304608F054FC0098D0F800A0DAF8040040F00200CAF80400DBF80460DBF866
:2040EC000830D5F800C01F6896F88C101FFA8CF0B7F1804F00FA01F080B2019014BF404F22
:20410C00404F4148A96849B996F88C104FEA810909EB00018A6906F1A6010AE096F88C20D1
:20412C00DDF804E04FEA820909EB000212697144491EBA6080467960186800F1080EC7F86A
:20414C0000E0B9684FEA0C1243F6F07CA2F110000CEA00000143B9601A68B2F1804F14BF99
:20416C002A492B496F68B7B9D88909EB0807A6F8A600B86906F1A6028860009F0A60D7F8DD
:20418C0000A01A682F6802F1080E3D01103D674607EA050007E009EB0805AD688D60019D9B
:2041AC007F197F1E0F60C1F804E08D6828438860D6F8A070586919690843796809688862C2
:2041CC00506A40F003005062DAF8140040F00100CAF81400207830B9616804F16C05284629
:2041EC0002F008F910B10120BDE8FE8F584601F07FFB2846002102F0FDF80020BDE8FE8FDB
:20420C000005002030040020D4CC000010050020400400202DE9F84F994692468B460646AF
:20422C0008F09CFA604C0090B4F93210B4F930000AAF401A40F6F8710140082980F29E8028
:20424C00B4F9300004F59475401C6FF31F3020860820B4F93080EB7F33F07F0304D0401EFA
:20426C0005F12005F7D1002506F1700007F0E6FBC5F808B085F81EA0C5F80490A5F81C80B1
:20428C004A48EE6097E80C00202100271940104005F1100383E8030004F12000EF77036839
:2042AC00002B5ED1294606F0D5FA00285FD0A6F8B880E87F40F08000E87796F8BA00012850
:2042CC0004BF86F8BA70A771607A40B1607830B10120A0726772A7712079401C2071009889
:2042EC0008F046FB606A00285BD16078002834D1E079012855D008F031FA0646207A40BBAB
:20430C00A86805F031FF2B49294AE36809681060B0B1DD681068401BB0FBF1F0012898BFC4
:20432C00012104D9DB681068C01AB0FBF1F19834204608F061FB204607F07FFF30462EE06B
:20434C00304608F015FB04F1BC00042107F00EFF27E0194901200870F0E7192008F09AF85D
:20436C001FE004F12000294606F074FA48B9B4F9300000F6FF706FF31F3020866FF0010848
:20438C000CE0A6F8B880E87F40F08000E87796F8BA00012804BF86F8BA70A771009808F055
:2043AC00E7FA4046BDE8F88F280D0020F1EFFF9F382B002040D30000342B00202DE9F04F21
:2043CC000746ADF1140D0393002F02920E9801910F9C049000F0B680081C00F0B380101C5C
:2043EC0000F0B080181C00F0AD800498002800F0A980002C00F0AB80206A002800F0A28058
:20440C00564D666A281D0068002E00F09B80A16A01F0F0FF40B2002808BF6FF0020700F013
:20442C008D8084F82C002078618800EB80000918143188B2216A88474749086030B9284686
:20444C00406803F0D7FF4FF0FF3777E08B46628823786088DBF8001025789E1800EB010AA9
:20446C00701800F1040805EB450002EB4306851876186D18C01805F10C098018401800F1CC
:20448C001005204605F0D2F82078C01C8010CAF800002078C01C8010C8F800002078083676
:2044AC00C01C801030602078C01C8010C9F800002078C01C80102860227839460AF104008B
:2044CC0002F07BFB2278019908F1040002F075FB22780299301D02F070FB2378204641466E
:2044EC003246FFF721FA071C12D100955046414632464B4608F0A2FA47B22278039809F1AA
:20450C00040102F05AFB22780498291D02F055FB21786288DBF8000001EB81015218002136
:20452C0003F08AF9616ADBF8000088470B48406803F060FFF8B2992808BF002784F82C70CE
:20454C00384606E01CB16FF0010084F82C006FF0010005B0BDE8F08F444F0020C41B00202B
:20456C002DE9FC415E4C574D574EDFF860815A4F94F8E410481E0B2861D8DFE800F07B2CD8
:20458C0043062343062343067664042907D001220A2945F8212C14BF0220032004E02021F3
:2045AC00012045F8211C024684F8E200002045F8390C0827C5F8FF7FC5F8F37F45F8392CD1
:2045CC00BDE8FC81052914BF09200620002584F8E400356070E094F8E1700120383D002F51
:2045EC00C5F81B0004BF0620002102D00021F160032084F8E400032045F8010C3160306870
:20460C00800859D294F8E400012503280DD00021404660220523009105F074F894F8E4008A
:20462C00062814BF0A200720D1E702200090002160220523404605F065F80420C7E708F045
:20464C00F6F9BDE8FC812249002622480E60012505600E2001F05CFC022006F055FB84F8EE
:20466C00E45084F8E360BDE8FC81002038600C2578601FE0194800680068014620208847D2
:20468C002C3D41F61D560F2000214FF4C072072345F8010C4046C5F803600225009505F06B
:2046AC0031F8404600214FF4C072072305F0A8FB0120386084F8E45004F1780007F0BDFD60
:2046CC00BDE8FC8139400C4038600C4000A00C402C500C4004800C4034600C40A0010010EE
:2046EC00C41400202DE9F8435C4C04F1200008F05FF915460E46009008F030F805F00107FC
:20470C008146B6F1FF3F0CD1606A20B9B4F93200401C06B202E0606AB0F91C60002084F801
:20472C005F00304606F094FD0326002800F08A80616ADFF81C81814258D0009FB8422ED005
:20474C003FB100990A68904209D0096800290091F7D1832E41D0484608F00AF93DE004F157
:20476C00980007F06BF900980168AA0802D20A6802600846002202600091009818B9484685
:20478C0008F0F6F828E0C17F41F00401C177684607F038FC0146404606F05CF8EDE704F1B8
:2047AC00980007F04BF9A8083ABF206A006800202062484608F0DCF80099C87F40F004006F
:2047CC00C877684607F01EFC0146404606F042F8009808B1A808EFD28326E079012834D0E1
:2047EC0004F1BC00022107F0C1FC2EE0A90803D3216A009100262662C27F0121B940114316
:20480C00C17707F06FFE0446002F14BF1148124806F020FE484608F0ABF8A80801D3009898
:20482C0020B9204606F0E6F883260EE0C17F41F00401C177684607F0E5FB0146404606F0CC
:20484C0009F8ECE7484608F093F83046BDE8F883540D00200100020401000104280D0020EE
:20486C00B0B5456884684F48297BADF1180D012916D0217E627E4C4B2F7E0143009143EA5B
:20488C0002010191494937F0010718BF081CA27E1043029095F88D000322FF2811D00DE082
:2048AC00677E217E3843A37E019041F00041009143F000403E49029095F88D000143042228
:2048CC000391FE204DF82200694605F1900002F00FFAC5F89C00002808BF00205FD0287B49
:2048EC00344951F8200001282BD02068B0F1804F14BF22220A22217ED5F89C0006F066FC07
:20490C002068B0F1804F14BF21220922617ED5F89C0006F05BFC2068B0F1804F14BF2422AC
:20492C000C22A17ED5F89C0006F050FC95F88D10FF2933D02068B0F1804F14BF23220B22E1
:20494C0028E02068B0F1804F14BF21220922217ED5F89C0006F03AFC2068B0F1804F14BF0B
:20496C0022220A22617ED5F89C0006F02FFC2068B0F1804F14BF24220C22A17ED5F89C008B
:20498C0006F024FC2068B0F1804F14BF23220B2295F88D10D5F89C0006F018FC012006B044
:2049AC00B0BDC046000480A0004000800004C0A000200080D4CC00002DE9F04F0446656884
:2049CC00A6680F46ADF1440D07F0C8FE95F8DC10012903D107F0CCFF002088E04FF0010BB0
:2049EC0085F8DCB007F0C4FFF868D4F804A028B9A06890F8149090F8158003E090F80090EB
:204A0C0090F80180B9F1FF0FE6D0B8F1FF0FE3D0384941EA09000D90FE230F9341EA080160
:204A2C000AF198000E910DA902F062F90028CAF8A400D1D049460D2206F0C8FBDAF8A40019
:204A4C0041460E2206F0C2FB3878287078686860387A002130220823E86001A807F078FE42
:204A6C000694307B00270990234A0097B16801AB05F1100005F00EFC01A8282208233946BA
:204A8C0007F0A8FE05941D49306901AA3B46079005F12C0005F036FD01A82422082339462F
:204AAC0007F092FE8DF81CB005F16000594601AA06F01AFA287838B905F17C00394601AA3B
:204ACC0006F012FA0E486860C5F8BC702F72C5F8C070706801F0F0FA204604F005FC094AD2
:204AEC0005F1C8000421234606F0DCFC204611B0BDE8F08F002000841D530000918C000014
:204B0C00BBC8000051C40000F8B5414C201D0368B3F1FF3F08BF002304F0D0FD002876D113
:204B2C003C4E20683468070F04F0FF04802C28BF002404F0C3FD4FF0FF3578B1401E07D072
:204B4C00401E012802D9801E13D014E08FB112E0381C5CD0801E0ED114340BE03846401E34
:204B6C0055D0801E53D0001F51D0401E03D1163400E00A3465B2162D49DB274827490025E7
:204B8C0001270560264E0F60264C376020680028FCD1274A161D2449244F306820F00300E4
:204BAC0001433868C0080CD2106810F0030F0AD041F003003060106800F003000328FAD1D6
:204BCC0001E041F001011B483160006820B11A4800681846FDF76CFD184819490560194F74
:204BEC000A686FF35B4247EA0200086016490868C0F30130012806D10A681448104040F498
:204C0C0000320A60086020680028FCD1F8BDFEE718130050A0100050840460425C600C40C0
:204C2C00082204430C00684204000020B03F00500040034080012843000120438C21084016
:204C4C00482003400000390104000940FFFFFCFC2DE9F04304466568A7680E46ADF1340D7E
:204C6C0007F07CFD95F8D910012903D107F080FE002084E04FF0010985F8D99007F078FEAF
:204C8C004FF00008C5F888803069286170696861307E2876307B287330782870706885F811
:204CAC00A480686070694146092828BF494685F88C10387B01F000FA204603F0DDFEF87E94
:204CCC0085F88D002046FFF7CBFD50B9387B01F01FF907F043FD85F8D98007F049FE444600
:204CEC004CE001A841463022082307F031FD06947879CDF80080234A0990397901AB05F180
:204D0C001C0005F0C7FA01A841462822082307F061FD05941C49B86801AA4346079005F1DC
:204D2C00380005F0EFFB287878B901A841462422082307F049FD8DF81C9005F16C00414687
:204D4C0001AA06F0D1F8114800E0B068A86003F07DF9C5F8A000287B012808D1D5F89C00B0
:204D6C000B4907F0D2FDD5F89C0000B18460094A05F1C4000421234606F094FB20460DB0CC
:204D8C00BDE8F08349690000D78F0000CBC80000B978000045C700002DE9F84F5FEA000958
:204DAC001C46924600917DD0081C7BD0BAF1000F78D0002C7BD0206A002873D03F4D616A9B
:204DCC00281D006800296DD0A16A01F013FB40B2002808BF6FF002055FD084F82C002078F4
:204DEC00618800EB400009180C3188B2216A88473149AB46086030B9DBF8040003F0FAFA27
:204E0C004FF0FF3549E08846668865882178D8F800008F192D183F1806EB410636182046A8
:204E2C0004F004FC2078C01C8010286020783F1DC01C8010386020780836C01C801030601C
:204E4C0022784946281D01F0B8FE28463A463346014607F0EFFD45B2227800983B1D1946C0
:204E6C0001F0ABFE22785046311D01F0A6FE21786288D8F8000001EB41015218002102F07B
:204E8C00DBFC616AD8F800008847DBF8040003F0B1FAE8B2992808BF002584F82C502846A3
:204EAC00BDE8F88F1CB16FF0010084F82C006FF00100BDE8F88FC046444F0020C41B0020A1
:204ECC002DE9F04F0C464549CA7AADF12C0D84460592487B09900D7900958A7A488B4B8AF2
:204EEC000E7B91F805A091F802800492B1F846E008904A7A088B0392CD7807900A7AC88A49
:204F0C0002920F6A0690CA79888A01928A79E146A9F54079B9F11D0F10D8DFE809F05B554B
:204F2C0053514F4D4B494643413F3C3A380F34312E2B2923201E1C0F19181716BCF1280F16
:204F4C0049DA604605F05CF821E0099EB246D046CDF814801DE00898079007980690DDF8E6
:204F6C0018E005E03831086820608888A08032E070460AE0B1F8440009E0B1F8420004E068
:204F8C00B1F8400001E091F83E00034612E0208021E0059804900498039001E03231E2E72B
:204FAC00039802900298009006E0019A87310DE068310BE01846EAE7009D0BE02C31D2E717
:204FCC00276008E0583100E048311022204601F0F4FD00E025700BB0BDE8F08F6809002015
:204FEC002DE9F041444C94F8E700ADF1280D00286FD1394F387B01250021242284F8E750A5
:20500C007E6884F8E6000823C4F80C6101A807F0C3FB002604F10C00069601ABADF8146002
:20502C002E490796324605F0B1FC2D4904F1300001AB324605F0AAFC2A4904F1540001AB74
:20504C00324605F0A3FCB868014628468847DFF89C8025487B7B0078D8F80410C1F3815756
:20506C001BB1032F03D184F8E150032F16D0022F14D0012F26D103201D4C009031464FF07F
:20508C0040521C23204604F03DFB009531464FF400720923204604F035FB13E0022005F020
:2050AC004BFE032F0CBF4FF47A7142F21071114800685434B1FBF0F1204607F09DFC204689
:2050CC0007F0BBF8D8F80000C00802D2304605F033FE0AB0BDE8F08104D20000B77800003D
:2050EC0015710000C9760000492B0020B03F005000A00C4040D30000C4140020F8B506F072
:20510C0069FF3F4E3D4F0446A00822D3796A01B33D46002068628A69086906F10803204051
:20512C00104340F0020088610A6918689043186001F1100090E80C0030681A1C9043306000
:20514C0005F12C0005F086FB022105F1BC0007F00DF8786AA10814D200F110020CCA00216F
:20516C0022400B4008BF002A0BD0016985690C40B8622C434FF48041846107F1BC0006F0EA
:20518C00F5FF786A002837D107F12004204607F00FFC051C30D0F868E968884226D1A868D6
:2051AC0004F0E2FF17490860E0B906F1080128690A6810430860326805F1100393E80300CE
:2051CC00081C1043306000233361A86846F80C0C06F1100000680028FAD0204606F012FFD1
:2051EC007D62F8BD086802F0D1FFF8BD07F1BC004FF4805106F0BAFFF8BDC046280D0020A1
:20520C000C100440382B00202DE9F0430646ADF11C0D07F0F1FA05F017FD4FF000090546C5
:20522C00CDF80C9007F08EFA30F0010002D00398A84202D16FF0040066E070684C4658B11B
:20524C00B0F1FF3F05D004A905F0E6FC30B1804659E04FF0FF3000E02046049006F0DEFB13
:20526C0004994FF00108471802E00A463BE004936868049901F0BEF800282DD0684603F020
:20528C002BFDD8B99DF8040005A905F0F9F988B9B368BDF814009DF80610029A984748B1D7
:2052AC00BDF814009DF80670B081029BB773C846336111E0029903A805F046FF0498641CE7
:2052CC00B0F1FF3FD4D00028D2D006F0A7FB3B1A02D004989842CAD2039F06F0A8FD05F171
:2052EC00080647B13A4652F80C1C0029BDD1316842F80C1C376006F074FF24B1686803F060
:20530C0079F8641EFAD1404607B0BDE8F0837047B0B53C49446809688068496800688847E0
:20532C00394A012302F114052B6050B1217AFF2907D0FF21400921725FD2042045F8180CD6
:20534C0040E0207A002858D03049401E18D0401E02D0FD3851D04DE01568D4F8B400057053
:20536C00D4F8B400401CC4F8B400D4F8B8707F1EC4F8B87022D0012F39D90922022019E0E6
:20538C00D4F8B0707F1EC4F8B0701DD1D4F8B870A7B10220D4F8A83020721B7C083A012F01
:2053AC004FEA430343F0010313609CBF0321516001D90B220A6007F0A5FAB0BD0020207262
:2053CC0004230B600220F6E7D4F8AC0000781060D4F8AC00022F00F10100C4F8AC00F0D20B
:2053EC00D4F8B870002FECD100202072052342F8043CE7E7FF202072B0BD04F12C0004F06C
:20540C00F5FBB0BDAC01001008280040042800402DE9FC41374EDFF8E080071C17D100254B
:20542C007570284600F018FF44463449606905F053FC60690C212A4605F0D8F903F0DEFEF7
:20544C00284605F026FE06F1180007F0B5FA022F4DD1F78802200A25002442F2107170702C
:20546C00274BB5700122F470B1FBF7F03061474607F1140000681C700C2105F0B7F9214816
:20548C00214900688046B1FBF0F002F0CDFC00F0A9FDB08900F0FF0000F0DEFEB089C0F3AB
:2054AC00012004F071FA012005F0F3FD684604F097F8164D287806F1180770B12046432125
:2054CC0002F08EFD48B18DF802400DF10200012104F038FF287007F017F943F69820B0FBFB
:2054EC00F8F002F0A1FC3470384607F063FABDE8FC81C0460C130020441A00200700008047
:20550C00472B002040D30000A0860100242B0020F8B5364C0D46A80846D2E80865D304F1DD
:20552C00200007F045FA00280EBFE068C068E06041682F4A097811604168126809789142D9
:20554C0007D087692FB16FF0FF0100224FF00073B847022005F0F0FB112000F0ADFD012078
:20556C00E071E168087C10B16079012803D00E2000F0A2FDE16849681E488F680FB9CF6858
:20558C001FB10021C1611C4F07601C4A40F2FF711160002787611A4941611A4807F072F8CA
:2055AC00192004F001FBF8BD04F12C06304607F0FFF900F029F8304607F0FAF925F00205E8
:2055CC0004F1200158B9E80803D2084607F0F0F958B104F1980006F031FA042101E045F0B3
:2055EC00020104F1BC0006F0C1FDF8BD280D0020D0210840001004405100070600000460DE
:20560C0002000040AD3E0000F8B5071C72D0B86840F6030120264A1C02E04068761EF6B273
:20562C0060B15EB10388994218BF9A42F5D1F9681CC820311CC149C881E849007868BA6926
:20564C000025BD61C8B1F87F42F00202002300F00700401E09D0401E04D0801E08D14FF09C
:20566C00805304E04FF0804301E04FF000532A467C68F868B7F91C10A04707F06FF81E4CB3
:20568C000646B4F93200401C6FF31F30608604F12C000168CD7706F0B5FC304607F068F99D
:2056AC00F868B0F9B810B4F93220914222D1217801291FD090F8BA60BEB90668AEB1E26866
:2056CC000E4912680968B2F1FF3F13D0B6FBF1F2012A8CBFB6FBF1F10121703007F08CF9DD
:2056EC00F868703006F0A9FDF8BD80F8BA50284602F04CFDF8BDC046280D002040D30000FF
:20570C002DE9F84F00298346009106DD024600980021401E42F8041BFBD10098DFF8C8807F
:20572C00DFF8CC900028C8F800B012DD2F48009C0768002537F8020B38B1D9F80000AE0058
:20574C003158002088474BF80600641E05F10105F0D1284F41460120D7F80080C880B8F1DE
:20576C00000F22DD4FF0000A00980127002817DDABF104060446002556F8040FB0F1FF3F95
:20578C0004D0D9F800106958884730600021B0F1FF3F08BF01212D1D641E01EA0707EBD1BE
:2057AC0037B90AF1010AC245DEDB04A006F024FB0D4900200860BDE8F88FC0467864632EF1
:2057CC0072756E74696D652E537461727475703A20276D61785061737365732720657863DB
:2057EC00656564656400C046441D002090D3000094D300008CD300002DE9F04390460A6865
:20580C00D8F800401678814600271D463846ADF1140D531C242E0B6053D112F8016F5B1C0F
:20582C004C2E0B600ED1AA68E41C24F00304241D54F8040C494603F06DF82968EF600127DF
:20584C00091A2960462E1AD1E41C24F00304241D54F8040CE41C029024F00304241D54F83F
:20586C00040C002749460390AA68ADF8047001A801F054F92968EF600127091A2960532E7C
:20588C001FD1E41C24F00304241D54F8040CE861C8F80040288B0090A968EA69D9F8000093
:2058AC004346FDF72DF9D9F80040002714B12418C9F800402968D8F80040091AEF600127C4
:2058CC002960662E0AD12B8B23B9E41D24F00704083403E0E41C24F00304241D1FB9E9696D
:2058EC000E700127EF60C8F8004005B0BDE8F0832DE9F84306467468B56806F02FFFD4F854
:20590C008810002963D007F033F82968486820F0020048602968486A20F003004862D4F89E
:20592C00A07068692969084379680968C1F804052968486920F00100486128684FF00108B5
:20594C00C0F82080304605F0D5FDD4F88800476806F004FF814694F8D80060B117F0704FA8
:20596C0003D117B1042005F0CFF9022005F0CCF9002084F8D800484606F0FAFFD4F888106D
:20598C00087C042803D003200874D4F888102A696869D4F8A0304746104307FA00F25868E2
:2059AC000068C2622868B0F1804F14BF0A480B480F68806800258204A7EB9250401E086093
:2059CC003046A268C4F888509047BDE8F88306F0CFFFBDE8F883C04600050020300400204D
:2059EC00F0B5ADF1340DFFF7FBFA304908682822082340F00200086001A8002106F0EAFE8C
:205A0C002B4E2C490524002301AA079406F1BC0004F078FD00213022082301A806F098FE0B
:205A2C000025FF271921244AADF81C5001AB099706F16000009504F02DFC2822082301A8E3
:205A4C00294606F0C7FE1D49079406F1F00001AA2B4604F057FD01A829463022082306F039
:205A6C0077FE0124ADF81C40099706F17C001A2101AB134A009504F00DFC12492A4606F1D4
:205A8C009800134604F082FF0F4806F0FBFD86F85F507571F57135727572B5727561B47126
:205AAC004FF6FF70A6F85C000DB0F0BD00200940280D0020E9C0000021B70000C17700004B
:205ACC00E18D0000F1B500001D5500002DE9F041324831490860FEF7FFF82BA006F0F5F9F6
:205AEC0006F038FD314C0025082004F1180141F80C5F401E8D60FAD1241F0B2004F18801F1
:205B0C000A46401E22F80C5BFBD10820244F254E0880254A8F60311D21F00303D71A67626B
:205B2C00E3612362E66904F120088C461846D91901E026F8025BB142FBD8B910E82700EB1D
:205B4C00810121F8045C4FF6FC761F8006EA0C0300F1E807D21A676106EA0201EC39A0F8A5
:205B6C00E810284601F0E8FBA061D8F80000606102F0CAF904F024F904F0D8FA06F082FC4D
:205B8C002846BDE8F081C0465374617274696E672E2E2E0A00C046C0581D0020D9C100009A
:205BAC00E9B800004A2B002028410020D81500202DE9F0470D4606465FFA85FA280824BF36
:205BCC002E4845402E494FEA8A03C85885EA00023240C2F300672B4A06EA0504B04322409F
:205BEC0006F4E0240243B4F5E02F01D1500E14D306F4E020074310D002F4E027B7F5A027F3
:205C0C0007D0B7F5803704BF22F4003242F4A02203E022F4803242F4C022DFF86C80CA509B
:205C2C0008F1D00739680122002002FA0AF40C4218BF101C5FEA000906D1F00D04D34146D5
:205C4C00C5F3805001F80A00300E0BD306F086FD290E34BF0021211C3A68A243114339601C
:205C6C0006F086FEB9F1000F06D0F00D04D34046C5F3805100F80A10BDE8F087006000A0FE
:205C8C0000100840FF7F077F00200240F8B5344C04F1180004F1100101F02AF800286060FF
:205CAC0008BF002052D02A496CC904F124006CC02EC9002780E82E00264884F82470264E3C
:205CCC006063306884F83070002808BF381C05D022480168CA6804F124019047E0603E466F
:205CEC0000B10126002830D0AB208DF8000006F0A1FB6846012105F04FF83E4600B9012646
:205D0C0006F090FB1EB102F067FC00B13E46C6B104F036F8002808BF3E1C14D004F144009E
:205D2C0000E0083006683EB1017922789142F8D1417962789142F4D1A060006800B10127C5
:205D4C003E46012E01D002F073FF3046F8BDC046F8CE000000093D00541D002044CE00006F
:205D6C00F4170020F8B50F460146334C8E684D68384620383ED0401E4CD0401E47D1287B02
:205D8C001778012814BF2A492A49FF2F41EA070125D0D5F89C0002F0FBFA70BB3068B0F17C
:205DAC00804F14BF23220B22D5F89C00394605F00DFAD5F89C0095F88D1002F0D9FD287BE1
:205DCC0085F88D70012813D195F8A40001280FD1D5F89C002146394304F07EFF08E0D5F884
:205DEC009C0095F88D1002F0C3FDFF2085F88D0000241BE0287B012802D04FF0FF3415E0D2
:205E0C0095F88D20214601200024114308E06FF001040BE095F88D100020044641F00041FF
:205E2C0085F8A400D5F89C0004F056FF2046F8BD0004C0A00020008000000680F8B506F03B
:205E4C0045FC02F06FF906F04DFC044604F00C000C284FD0E0081ED205F026FA274E3768BE
:205E6C0005460120014605F066FE31686943884211D2234C8220B0FBF7F0291A204606F0D6
:205E8C00BBFD204606F0D9F90120FDF73BFA204605F0D4FD2FE020092CD21A4806F0A4FB6D
:205EAC000428FAD01849620906D228B10A460846016821F0010104E00A460846016841F02D
:205ECC0001010160D2F898004FF0805440F00300C2F89800D4F8B801806901462020884795
:205EEC00D4F8B801094C806B2168804701202060206800E030BF06F0EFFBF8BD40D30000E1
:205F0C00D0140020004003408C2108402C2009402DE9F843044606F021FC81462D4802195F
:205F2C0092F8ED10491ECFB2002F82F8ED704BD12B4D05EB84052E78698836F07F078846C2
:205F4C001AD1F10911D24FF08054D4F8B801806901464046884704F5DC742068406B01468D
:205F6C00404688470228F8D121E000EB8800D0F80011002088471AE04FF08054D4F8B801FF
:205F8C00006A014640468847D4F8B801806A014640468847D4F8B801006B01464046884758
:205FAC0001210D4A0D48116001688908FCD306F03F003F2801D0FFF7ABFF687800F03F00B1
:205FCC003F2801D0FFF7A4FF484606F0D1FCBDE8F883C046C4140020282008602820084035
:205FEC0084CB0000F8B5324D2F49686904F074FEFF20A87000242C7068216C70012001F0FD
:20600C00EFFF002808BF271C4CD02C46802001222071211D6B2005F095FA06F075FB254852
:20602C00224F0568B7FBF5F001F0FEFE02F08CFB261D071C36D0022003F0A6FC06F030F937
:20604C0060B303F04BFD58B301200C2101F0C8FF30B30F203070314601220A2005F072FAFE
:20606C0042F21070B0FBF5F001F0DEFE04F10E011020032206F0C6FA04F10E0540B128785B
:20608C0080302081687880306081A8788030A08101220B203146227105F054FA06F034FB81
:2060AC0003F04EFF3846F8BD07000080A0860100441A002040D300002DE9F041064606F099
:2060CC004DFB2D4D8046A91991F8ED00421C002881F8ED204AD1294C04EB8604277807F049
:2060EC003F003F2801D0FFF7E7FF607800F03F003F2801D0FFF7E0FF668837F07F001AD1AE
:20610C00F80911D24FF08054D4F8B801406901463046884704F5DC742068406B0146304689
:20612C0088470128F8D121E005EB8605D5F80011012088471AE04FF08054D4F8B801C0698D
:20614C00014630468847D4F8B801406A014630468847D4F8B801C06A01463046884701218F
:20616C00074A0848116001688908FCD3404606F0FFFBBDE8F081C046C414002084CB00005F
:20618C0028200860282008402DE9F041314C0546A0781F4616468846ADF1380D012803D01E
:2061AC00FFF71EFC0120A070B8F1000F09D0C5F8048036B1AE6006F0D1FAE17819B106F0F1
:2061CC00D7FB00203FE0491CC9B2E17006F0D0FB01243FB91D494CC909A84CC006C909AFD4
:2061EC0080E80600386828607868E860387C2874B8686C746861788A6882F86800B1A861B6
:20620C000021A02205F1200001F016FB684600212422082306F0D8FA8DF8184005F1380064
:20622C0000216A4604F060FE684600212422082306F0B2FA0649069505F1700000226B462A
:20624C0004F0A4FB28460EB0BDE8F08140D100001DC90000280D0020BCB5324C227807463B
:20626C0006F01EF8002859D042BB3FB306F018F810B30120682101F0B3FEF8B1092020714E
:20628C00211D01226B2005F05DF9251DA0B13F202870294601226C2005F054F9002121701F
:2062AC0050B1E11C1C20012205F04CF920B13A202946012206F0A6F906F026FAF8B2277092
:2062CC0048B30120682101F08BFE48B32078211D012280F0FF0020716C2005F033F906F0FC
:2062EC0013FA2078C0F3801405F0DAFFB0B103F0F5FBA8B101200C2101F072FE80B1012C2E
:20630C0014BF00201120694601228DF800000A2005F018F902E003F013FEBCBD06F0F4F984
:20632C00BCBDC046441A0020F8B5304D0C460646A0083CD2A00F51D3294F3868294C20F066
:20634C00020040F400703860032144F8041C41F23003A360012121605022A26021604FF42F
:20636C00CA60A0602160204844F80C1C06F08AF9A81C0078012803D006F1380002F03AF896
:20638C00002402203C6004F0BFFC1120FFF7C0FD307C10B90E20FFF7BBFD2846144A0472E9
:2063AC0011784472D1B11470BC30042114E005F12C06304606F0FCFAFFF726F9304606F07C
:2063CC00F7FA30B924F00204A00F07D34FF0005100E0022105F1BC0005F0C8FEF8BDC04679
:2063EC00000004600C4104401D550000280D0020342B00202DE9F0410E460746B6F1FF3F89
:20640C00ADF1380D09D046B12B4909AB6846324605F0FCF80220694601E000210320274C1D
:20642C000C91EFF3118825688DF834002024ED1984F31188788980BB002E04BF88F3118857
:20644C00002036D006F066F8064606F0D5F90B9009A9816104F0E8FA284609A906F0AEF9E4
:20646C009DF834000025022802D10C9801F0F6FE88F31188304605F0DDF8EFF3118384F35B
:20648C0011880C9810B106F0B3FA0C950B98856183F311889DF834000BE07889401E78810A
:2064AC000C9818B106F0A4FA00200C9088F3118801200EB0BDE8F0810DB300004CD300002B
:2064CC001EF0040F14BFEFF3098169468869EFF3118102B400B5DFF89CE0F047284A11685C
:2064EC0001EA000010605DF804EB1EF0080F03D101BC80F31188704704BC1EF0040F14BFC4
:20650C00EFF309816946A1F1200114BF81F309888D464A604FF08070C8611A488861184B46
:20652C001868086040F201101860704702B401B4EFF3148100291CBF002282F3148802B426
:20654C0002B4DFF834E0F04701BC01BC00281CBF022181F3148801BCDFF820E0F047044890
:20656C004FF08051016001BC80F3118800BF00BF04ED00E0DD8E0000EBC8000077C9000028
:20658C00981A0020396500002DE9F04115460446A869A060686A98460E4608B928480068E5
:2065AC006062286A002806BF26480768071C06F0E1F8EB698BB918B1C1194742491E0F4045
:2065CC00E7610246E169606A434601F075FD2062206AB0B90120BDE8F081002804BF236203
:2065EC00391C0AD04142C018401E084020623F1AE8693F18E761E0690140E1614FF0FF305A
:20660C006062A6622869E06268692063A86A6063A88DA087A08F012803D10B49C868401C40
:20662C00C8602046414600F00BFF0346404605F0B9FB002814BFD81C0020BDE8F081C0469C
:20664C0060D3000064D30000001A00202DE9F8430D46064668687468B7684FF0000810B9BF
:20666C00E86800284FD02078012814D106F076F8D4F8BC1049B1D4F8C0108D61C4F8C05085
:20668C0006F076F90120BDE8F883C4F8BC50C4F8C05006F06DF9022004F04EFB04F16000A4
:2066AC004FF0FF318146FFF7A5FEB86803F05AFA3046294600F0B6FD0546B86803F074FA44
:2066CC00207888B9B5F1FF3F08D004F17C004FF0FF31FFF78FFE207A48B111E0032020727D
:2066EC00022004F011FB0BE0B5F1FF3F02D04FF0010805E00320207204F12C0003F076FA65
:20670C00484601F077FE4046BDE8F8832DE9FC470AAF3F8882460C4608469946154601A9AE
:20672C0004F01AFE012808BF01204AD0BDF80400DFF8948042F60211FF26401A2ED048F270
:20674C006311401A012827D827BBB9F1010F1FD1BDF804104AF666200027884202D12978B7
:20676C00032913DA2978E2681170BDF80410884205D0E1684046884218D13E4618E0E168D9
:20678C004046401C884211D1012611E080270DE00D270BE00B2709E00A2707E00097504634
:2067AC004B4621462A4601F057FE0746FF2E07D04046001D006818B1016809B13046884792
:2067CC003846BDE8FC87C046601800202DE9F0410D462B4C2B4907289046ADF1180D4BD8F9
:2067EC00DFE800F02B3F3D3B393734040420ADF80A0003950826ADF8086002A804F0F4F91B
:20680C00002839D104980028074635D0606804F11701814209D0ADF800606068019005212F
:20682C00ADF80210684604F0DFF9384641462A4600F0C3F9676025701EE0082D1CD14046F8
:20684C0001680F3421604068606015E00C46153408E00C4606E0643404E04F3402E03A3498
:20686C0000E0253420460021152200F0E5FF204641462A4600F0A1F906B0BDE8F081C04688
:20688C0038110020B11100202DE9F0410E462A4990461C4606AF8C4672680878BB8851786E
:2068AC003F881278002502EB012242F62321521A2AD0521E052A19D9921F0DD0263A35D1DF
:2068CC00072F31D8C7F10700984298BF83B20CEB070000F1080121E0B84225DBC01B9842A0
:2068EC00D8BF83B22380DCF804100BE0F06805F009FD80B2B84217DBC01B9842D8BF83B258
:20690C002380F168C9190AE0082F0DD8C7F10800984298BF83B20CEB07010F3123804046F9
:20692C001A4600F04AF903E0072501E025800A252846BDE8F081C04638110020B0B5014655
:20694C008B681C68E26948682262520824D2D0F8A01049680A685D69D2F80415294206D060
:20696C001C68616A21F002016162C2F80455D2F8042519690A4230D01A68516A21F00101C1
:20698C005162D0F8A0205268196912683830C2F8041503F02BF9B0BD1C68626922F00102D7
:2069AC006261D0F88870AFB9626822F0020262601C68626A22F003026262D0F8A0005A69E8
:2069CC0040681C6900682243C0F80425084604F091FDB0BD0846FEF78BFFB0BD2DE9F04112
:2069EC0014460F4605F0BAFE1FFA80F81F480068007808B905F03CF9E7B138684FF0FF35C1
:206A0C0018B140280AD3810B08D17E681EB1310A04D0310E02D1B9680F2908D93DB10CB13C
:206A2C00284620700820FFF773FA002418E07968BA6803E04FF480700122014604F034F901
:206A4C000B49012008600B4908684008FCD30A4800684168022088470CB100212170044665
:206A6C00404605F085FF2046BDE8F08114D20000A802504208800240CC010010F0B52048B9
:206A8C000127F84201D002F013FD204D204F214EBD4206D203CD0478A4003459401CA047D3
:206AAC00F6E71D48002800D08047164D164FBD4202D210CDA047FAE7F0BD03251BE0416810
:206ACC0008300A1C2A400BD11A1C2A40AB4305D0046804300C600431043BF9D1131C05D055
:206AEC00047801300C700131013BF9D1021C2A4001D0A84304300368002BE0D17047C046AD
:206B0C00FFFFFFFF0000000000000000C0D80000F0D8000088D80000B99100002DE9F84312
:206B2C00002A894607464CBF47F6FF75151C002F08BF002033D03888002808BF002403D057
:206B4C002A4600F06DF90446281B002826DD388828B1291B484613A203F0AEF82418B86896
:206B6C00E0B1D7F804802E1BB8F1000F0DD0404605F0C8FB401DB04207DC291B48460AA259
:206B8C00434603F099F824182E1B122E06DBBB68291B484606A203F08FF824182046BDE8D8
:206BAC00F883C0463A2000C0222573222C2000C06C696E652025643A2000002A4AD05FEA0E
:206BCC00000C8B071CD1830722D1102A08D370B4103A78C978C0103AFBD270BC103238D018
:206BEC00042A2CD3082A05D30C2A24BF08C908C008C908C008C908C092072AD0920F22E038
:206C0C000B780370491C401C521E22D08B07F7D1C30714D18307D8D0121F12D308C90380AA
:206C2C001B0C4380001D121FF8D20AE008C903701B0A43701B0A83701B0AC370001D121F82
:206C4C00F4D2121D05D00B780370491C401C521EF9D16046704770472DE9FE4F0746019216
:206C6C000C9800919B4602902FB1081C03D0101C01D0029810B90220BDE8FE8F1B480178F9
:206C8C0000252C462CE0A00037F800A04FF6FF73C619534520D096F80280B8F1000F1BD005
:206CAC000198009A594605F069FB5FEA000913D05FEA580006D3029B504601214A4600F019
:206CCC00A9FE0543B078800806D33088029B02214A4600F09FFE054304480178641CE4B278
:206CEC00A142D0DC2846BDE8FE8FC046680900202DE9F843224D884606464FF0FF3105F183
:206D0C0024008146FFF776FB00200CE0FF2909D02A688A4204D905EB8101D1F894700FB1CE
:206D2C00002627E0401CB8F1000F03D018F82010FE29EBD10024346074600127B46011E057
:206D4C00FF280ED005EB80000B787268C0F8946007FA03F0104370600A680A49304604F063
:206D6C004BFA641CB8F1000F04D008EB84010878FE28E5D1484601F03DFB3046BDE8F88395
:206D8C00C0270020007FC7672DE9F8432020EFF3118780F31188214CA068012105F020FE72
:206DAC004FF001094FF0000865692168A4F81C906A1A2168A4F81E80461B401A904227D3CA
:206DCC0087F3118840462D18361A4846294600F0E5FDB042F7D92021EFF3118781F3118820
:206DEC00E18B012903D14046294600F0D7FDB0F1FF3F06D0A169801B814238BF081C2918EB
:206E0C0001E0A069411904F079FFA4F820902560A4F81C8087F31188BDE8F883981B0020A7
:206E2C007FB503461F480D4601881F480088144614A6984205DB32462146284602F03CFF4F
:206E4C001DE0994206DB184604F038FE0028F2D04268F1E715480088002808BF0CA2EBD03C
:206E6C000095002C48BF47F6FF74114E0020114901946A46346802901846A04702980090D3
:206E8C007FBDC0467B6D6F64756C652325647D007B6D6F64756C652D726F70653A25787D42
:206EAC0000C046C0E8D30000EAD30000E6D30000C0D30000E5AF0000B0B50446A768ADF14C
:206ECC00280D5FBB0C2000F037FA071C1DD0684600212422082305F05FFC002306976A46FA
:206EEC006168ADF810301848059303F0EFFA386070B90820ADF824000C25ADF8265009A855
:206F0C0003F072FE384604F009F96FF0030018E0E06878602069B860A7600AE004F087FF08
:206F2C000546386804F08AFD2069B860284605F058F93868616805F05FFD386805F07DF9C5
:206F4C0000200AB0B0BDC0469DC600002DE9FE4F0CAF3F8882460C4608469946904601A9C9
:206F6C0004F0FAF9012808BF012034D0BDF804001A4E42F6021100254FF0FF0B401A17D0EE
:206F8C0048F29F11401A1BD0401E0FD167B9B9F1020F07D1E068414609880180E0688642D4
:206FAC000ED110E00D250BE00B2509E00A2507E0009750464B462146424601F04DFA05467A
:206FCC00BBF1FF0F06D0361D306818B1016809B1012088472846BDE8FE8FC046500F002029
:206FEC00FEB5044622481646089FC069618250F821201C4800681D4690420DD01B480068DD
:20700C00009000220191184E029231888F23384604F0D6FE0120FEBD084602F0A3FDA660B3
:20702C0068696060286AB0F1FF3F08BFFF2020740026E660288B00280EBF301C0120E06007
:20704C000146A88C10B141F00200E060204601F06BFD0346384604F0A5FE002814BFD81C69
:20706C00301CFEBD2CD30000DED3000018D30000781A00202DE9F84344688768D4F8A00058
:20708C004568066805F06AFB8146307888B1287905F02EFB012809D128684FF00008C0F876
:2070AC000480301D05F094FC404630702879FEF72FFF484605F05CFCD4F89C0004F02CFD24
:2070CC003968486820F00200486004F11C0005F07FFC04F1380005F099FC387BFEF718FFA2
:2070EC002078002518B904F16C0005F08DFC04F1C40004F003FC05F031FB84F8D95005F0B0
:20710C0037FCBDE8F883FEE72DE9984305F026FB1F4CDFF87880814604F1E000007850B9CD
:20712C004446A0680146022088470746102002F031FB2FB320E001F0ABFA002820460FD1F8
:20714C00144909683222B2FBF1F101B9012100F13004204605F050FC204605F06EF80FE01A
:20716C0044460022A16880F8E020022088470746102002F00FFB1FB1A0680146032088475B
:20718C00484605F0F5FBBDE89883C04604D20000C414002040D300002DE9F04107467E684F
:2071AC00D6F8BC00B8B305F0D9FA1C4D00248046042305F10C00046002202B6005F0A2FBE7
:2071CC007368D6F8A810384622469847022003F09BFD09E08169736822463846C6F8BC10B2
:2071EC009847022003F090FDD6F8BC00D6F8C0108142EFD12046C6F8A8003472C6F8BC006B
:20720C00C6F8C000064B2C6038461C6002F06CF8404605F0ADFBBDE8F081C046042800400C
:20722C001004054298B54368C3F8A8100868C3F8AC004868C3F8B0008868C3F8B400C868FB
:20724C001A49C3F8B8001848D3F8B0708FB9D3F8A820127C520042F0010202600220187203
:20726C000A68D20916D2D3F8B820022A16D30B2215E0D3F8A820127C012752000260D3F82B
:20728C00AC201F72541CC3F8AC40127882600868C00902D34FF0FF3098BD022003220A6080
:2072AC0005F030FB002098BD002800400428004070B51E4DAC68064604F068FE4FF47A71E1
:2072CC00001B4843030C04F0B1F82969401A48BF404240F6B831F618B14210D306280EDAC2
:2072EC00E9688C420BD8286848B1114A091B51438A0C02EB1141884288BF011C08E00D49A3
:20730C00486840080ED208687D2100F0FF004143C82905D3B1F57A6F88BF4FF47A6103E068
:20732C00C82101E04FF4FA61084670BD102B002040420F00AC3F0050F8B5001D84B214F033
:20734C00030002D0241A241DA4B204F070FD1A49102C02464F690A61C8BF8F6938880023AA
:20736C001E46C10BCD0319D126B984420ADD3B46012617E01988091889B28C42198011DC9B
:20738C001F4608469FB1001B80B20428B4BF3C88385344F400443C803F1D08E080F4004073
:2073AC00002680B23F1838880028DAD10027104604F017FF3846F8BDD4150020F0B50021F6
:2073CC0024220823ADF1240D684605F0FDF9194D012631466A468DF818602D1F05F11400C1
:2073EC0003F082FD144C2068B0F1FF3F0FD10020124F206004E0C96888472068401C20601F
:20740C00810001EBC001C81979580029F3D104F069FD2E7304F048F90027054C0349286017
:20742C00FF20087009B02770F0BDC046452B0020442B00207C2A0020240D0020C8D00000D8
:20744C0070B50D461C4A1B4904462B4603F038FE2061284604F0A6FC48BB194801220021CD
:20746C00A568164B22750068A161002D18D4A0688240A1689869E26005F094F9206405F067
:20748C0049F8EFF311850646202080F31188204604F078FE85F31188304604F0CBF806E09B
:2074AC00E160194640182064214604F051FC002070BDC04695BD0000DDA20000001A00203E
:2074CC0054D30000B0B51D481D4AC1691548C2F8081D07681448D2F8083D98420ED06FB130
:2074EC00124B1B6800240F2C2CBF1D1C0568001D641C0D607F1E01F10401F4D10C48D2F82F
:20750C000C7D0C4D0168202427F47F4000EB01204019C2F80C0D084B82F8224D1868C2F848
:20752C00140DB0BD1CD30000101000002CD3000030D300000000FA0524D30000781A0020F8
:20754C0000E000E0F8B50E4605461446A969EA691F462046FFF731FB64602FB1EA6920460A
:20756C003946082302F0A6F9E468D6B9E8686969AA68079B05F052F9071C08BF002020D0D9
:20758C0005F040F969683960696849687960696849680F6069684F6004F0C4FF07F10806BE
:2075AC0005E06A6930460021083A00F045F92868B0F1FF3F18BF3060286908B16168315096
:2075CC003046F8BDF8B50E46044604F08BFF0546304603F03DFE071C03D1284603F00AFA60
:2075EC0028E0F87F10F0070F1DD114487968884202D079682166786002214FF0E04204F16A
:20760C00580080E80600284603F0F4F904F138004FF0FF31FEF7EEFE04F1680700202066C3
:20762C0097E80300F8BD284603F0E4F9F87F10F0070FFBD102200021F8BDC04609950000D4
:20764C002DE9F041074603204FF00808ADF1180D042401901546ADF800800E46ADF80240E1
:20766C00684603F0C1FA00280CBF029B002312498868EBB11F705E70ADF80C800C22ADF8A7
:20768C000E4006461F469D700D69049203A803F0ABFA50B9059941B18F60284604F058FB46
:2076AC0036B1304600F0A6FE02E0384604F03EFC06B0BDE8F081C046200500201CB5042033
:2076CC0004F074FA022818D0032816D016480068C0F38150032814BF41F288324FF47A72B5
:2076EC001248144C016854342046B2FBF1F105F083F9204604F0A1FD1CBD03200C4C009091
:20770C0000214FF040521C23204601F0FBFF012000214FF4007209230090204601F0F2FFE0
:20772C00022003F0F1FA1CBDB43F005040D3000000A00C40C41400202DE9FF410E46054635
:20774C001A4C7188E08A81420CDCB188814209DBF088218B884205D13089618B884208BFCF
:20776C0018271FD0052002F04BFC77888046F188B388ADF80270A08AADF806100C4AADF801
:20778C0000003789ADF8043011216846ADF8087003F07DF9071C05D1A57304F1F000414661
:2077AC0002F008FE38460090BDE8FF816809002065C90000F8B504F0D1FF1C4C0746A06DA0
:2077CC0010F4602F27D0A06D400CC6B2700807D2B00803D2F00828BF022602E0012600E074
:2077EC000026751D68B201F01FFBA36D06F111010120884023EA00013846A16505F0B8F867
:20780C0004EB8600C76C4FB1A06C294600224FF00063B84702E0384605F0AAF8A06D20B1A1
:20782C0004F1F000002104F0A1FCF8BD280D0020002213460A46194671B510F0030F0BD05E
:20784C00002A82BF00F8011BB2F1010210F0030FF6D1002A08BF71BD11F0FF0141EA0121B1
:20786C00042A18D341EA0141082A0FD30E46102A08D30C460D46B2F10F0312F00F0272C05A
:20788C00103BFCD812F0080F18BF42C012F0040F18BF40F8041B12F0020F18BF20F8021B69
:2078AC0012F0010F18BF017071BD7047F8B586687568174995F88D3051F823201549114020
:2078CC00154AA2F150073F684FF0010C43EA01040CFA03F1394218BF44F480041268614605
:2078EC009940114218BF44F4000495F88D1003F0F3F90B48094920430840814207D1D5F87C
:20790C00880008B1042101743046FDF7F1FFF8BD00100840007F077FD0200240000006805C
