:20F000002DE9F0430F460446ADF11C0D0CF0ACFB774D2068286060686860A068A86075486D
:20F020008047754829680160744CC46069684160A968816004F1C0010161714880477148C1
:20F040002968016069684160A968002F816004F11801C16004F5DA74046131D097F82000A0
:20F060008DF8180097F821608DF8196006A804F003FB786A08B164490160B86A08B1634915
:20F08000016063483978017079784170B9787E688170F9784660C170BC688460FA6AC261C1
:20F0A000FB68C3603969016179694161B969FE698161306800B958485649486000274F70B9
:20F0C000564C57495020621C04F10C030EF0AAF8002700B101270026381C0BD005200CF0E6
:20F0E00005FF0C270820ADF814002968ADF8167005A8884768688047B1464A4F666080460D
:20F10000C7F808900CF04AFD7860474846800127077012200EF066F8FF21122220620CF029
:20F12000B9FF04F12400FF2108220CF0B3FF12200EF058F83D4908600868122231460CF081
:20F14000A9FF30460AF034FA38460CF0B9FA384801880826FF2906D1022101807822001DAB
:20F1600049460CF097FF032004F088FA042001F0E6FE052007F062F8062002F0D8FF072050
:20F1800003F0D2F92B4849460DF11A0204AB067010200EF047F8206A9DF81A1001729DF8B2
:20F1A0001A103746417409309DF81A1000F8011B29687F1EF8D1ADF800601420ADF8020010
:20F1C000684688471527ADF808600198ADF80A702968206102A888470398A968801E60611B
:20F1E000404688470DF054F907B0BDE8F083C046A8440020014C01102C4F002044D701007A
:20F2000001500010E8480020E9D0010015D101006046002024480020EBBE01002C4800200C
:20F22000FFC301009C440020DC480020B444002058480020604400200CF096BA00BF00BF61
:20F2400004F01ABA00BF00BF0DF0ECBF00BF00BF0CF04CBE00BF00BF0CF0A0BC00BF00BFE8
:20F260000DF0C0BF00BF00BF0CF014BF00BF00BF0AF09EB900BF00BF0CF022BA00BF00BF22
:20F2800004F0FCB900BF00BF01F059BE00BF00BF06F0D4BF00BF00BF02F049BF00BF00BF42
:10F2A00003F042B900BF00BF0DF0F2B800BF00BFCD
:20F2B0006E490860704780B5002200920B4601226B4900F0BAF802BD80B50A88172A05DB0E
:20F2D000002200920B4603226649F2E7022002BD38B50D460446A878012818BF02280DD1D9
:20F2F000288800281CBF6868002807D002210CF075FE00902B4605225B4931E0022032BDFC
:20F3100038B500F01EF81CBF6868002806D000F036F800902B460722544921E0022032BD4A
:20F3300038B500F00EF81CBF6868002807D002210CF054FE00902B4609224D4910E00220EB
:20F3500032BD0D46044628880028704738B500F024F808B100F013F800902B460B22454919
:20F37000204600F062F832BD38B500F016F808B100F005F800902B460D223F49F0E701219C
:20F390000CF02CBE38B500F008F808B1FFF7F7FF00902B460F223949E2E70D46044668680B
:20F3B000704738B5FFF7CDFF1CBF6868002807D002210CF013FE00902B4611223049CFE79A
:20F3D000022032BD80B5002100910023132270E738B50D460446A86810B105210CF0FEFDFE
:20F3F00000902B4617222749BAE780B500210091002319225DE738B5FFF7CFFF10B1032193
:20F410000CF0ECFD00902B461B2209E038B5FFF7C4FF10B103210CF0E1FD00902B461D222B
:20F430001949204600F049FA32BDF8B504460698009015461E46204600F03FFA07000AD17D
:20F4500006480268100006D0012D04BF3078451CE9B2204690473846F2BD00002843002074
:20F47000F7F4000033F5000065F500001DF60000ABF60000EBF6000065F700009FF7000088
:20F49000A5F700000DF8000081F80000F8B505460C46AF892FB3AA68167830060FD50D2FE8
:20F4B0001FDB0C3FBFB2D01900903B466888012105F0D8F8002814BF0220012000E0002077
:20F4D0002070B00900F00100607006F03F00A070781EA08080B208B1A868401CA0600020A0
:20F4F000F2BD0120F2BD0A7802704A8842704A88120A8270097918E104290AD101781170A8
:20F510008378417801EB03215180C0781071002070470420704705E0022B00D1D5E004201F
:20F53000704700BF0A8802700988090A417002207047022906D10178407801EB0020108044
:20F550000020704704207047E6E0042B00D1F4E0042070478A7802708878098801280CBF7B
:20F57000042012204843401C80B2704710B50B001CD00378491E012B89B207D14B0801EB39
:20F5900093739B08B1EB830410D108E0022B0DD1122391FBF3F3122404FB131131B999B286
:20F5B00021B110F8011B917013800FE1042010BD10B50C46022200F047F8001D611D0CF0CF
:20F5D00063FD2089801D80B210BD70B51E46062E144619DB049D2078617800EB01202880A5
:20F5F0000222A078E17800EB01206880211D02202871681D0CF048FDB01F288180B200B158
:20F61000A01DE860002070BD042070BD08888004000C70474B0801EB93739B08B1EB830356
:20F6300003D1890801D011809AE00420704710B50C4600F009F8611D2279001D0CF024FD43
:20F650002079001D80B210BD218801702188090A4170618881706188090AC170704710B5DB
:20F67000029C062B104612D1022121714278017801EB02212180C278817801EB02216180B7
:20F69000011D2279601D0CF0FFFC002010BD142B08BF1021E9D0042010BD7CE010B50B0033
:20F6B0000BD003785380491E022B89B205DB91FBF3F403FB141101B986E0042010BD31E7A3
:20F6D000022B00D101E0042070471078517800EB01200099088000207047088870473CE0A8
:20F6F00010B5022B0FDB029C207261721078517800EB01202080981E608080B200B1901CF9
:20F710006060002010BD042010BDB2E009B9002070470420704700BF0A8802700A88120AC4
:20F7300042704A8882704988090AC17004207047042B00D101E004207047009811785378AB
:20F7500001EB032101809178D27801EB02214180002070470888704700BF118001B900209D
:20F7700050600020704788884004000C704703EBD3704008B3EB400007D15908022904DB41
:20F79000009881800260002070470420704708887047E2E700BF4A8809880270514389B239
:20F7B000481C80B2704710B50B000BD003785380491E042B89B205DB91FBF3F403FB1411AC
:20F7D00001B901E0042010BD1480401C5060002010BD14E010B5042B0EDB00F062F8D47899
:20F7F000917801EB04214180191F818089B201B1111D8160002010BD042010BD00BF0A88BA
:20F8100002700A88120A42704A8882704A88120AC2708888001D80B2704710B5042913DB2C
:20F8300003784478091F03EB04231380C4788378918003EB042389B2002914BF001D0020E0
:20F8500090605380002010BD042010BD0978017001207047012B04D1009910780870002073
:20F8700070470420704709B9002070470420704700BF0A8802700A88120A42704888801CE3
:20F8900080B2704710B5022B09DB00F00AF8991E418089B201B1911C4160002010BD0420E3
:20F8B00010BD02981178547801EB04210180704709B900207047042070472DE9F04784B03E
:20F8D00080460C9D0C4691469A4655B9172004F05BFB0126050005D11324204604B0BDE819
:20F8F000F08700262846012700F8019B14B15146A047471C5FEA09600DD51021404604F04C
:20F9100038FCD8B9BFB2EA193946284604F05DFE044668B90C370420ADF800000195ADF8B0
:20F9300008706946404603F0EEFD00280446D4D0002ED2D028460CF07EFBCEE71924F7E793
:20F9500030B5022918BF102985B00446154603D1022B18BF102B01D0002017E00A469A4276
:20F9700003D129460CF06AFE10E01029694606D1284600F00DF810226946204604E000F0A3
:20F9900007F81022694628460CF058FE05B030BD38B504000D4618BF002D0BD010220FF2BF
:20F9B000A80128460CF070FB2078287360786873012032BD002032BD30B504460D0018BFA1
:20F9D000002C85B014D01022214668460CF05CFB68460021818110220FF26C010CF02EFE9F
:20F9F000012805D1207B2870607B6870012000E0002005B030BD38B504464FF6FE7084429F
:20FA10000D460BD0172D09DB03F01AFE2946884204D32046BDE8344004F0D9BB012032BD4E
:20FA300080B54FF6FE71884205D004F0DEFB010005D1172002BDBDE8014003F001BE02BD3D
:20FA50007047002070470000FB349B5F800000800010000000000000282808DA4FF6FF72E7
:20FA7000914204D0CA4A22F810100020704702207047282803DAC64931F8100070474FF660
:20FA9000FF70704770B504460D46C24E1C22002130460CF0F7FA347775770DF071FC01009A
:20FAB0000EBF012100211220317070BD10B5B94CE160A060102200210CF0D2FD012801D102
:20FAD000A0680CE010BD10B5B24C6060102200210CF0C6FD012801D1606800E010BDBDE8AB
:20FAF0001040102104F021BDAA48406870472DE9FC41A84D0446002695F81E80042C0F46EA
:20FB100024DA2878032818BF102054D101F07EFA28B900F047F910B900F046F908B1122083
:20FB300049E0012C18BF022C1DD1BFB10622002168460CF0A7FA00F040F838B90622FF2107
:20FB500068460CF09FFA00F038F808B1022032E00622394668460CF097FA0BE006216846A3
:20FB700004F0E3FC06E0032C04D16868694604F099FB0646884FAC77042138780CF0E5F8BD
:20FB9000002028849EB9ACB1684600F05BF8064668B9032C0ED11D20FFF76BFF288448B127
:20FBB00038784EF6602204210CF0E7F802E00EB185F81E803046BDE8F6810622694638461C
:20FBD0000CF03CBD70B5044600252000714E05D121B1062206F110000CF056FA30780128B9
:20FBF0000CD10125200004D10220307007F098FE04E000203070204600F0A8F8284670BD79
:20FC100038B50024E0B10578624A290006D14178837801EB0321D182C07810761078022882
:20FC30000ED10124280006D103201070117ED08A03F000FD01E000201070284600F086F8D8
:20FC5000204632BD10B5534CA17F81B10146062204F124000CF018FAA07F04F1240100F0CA
:20FC700008F804F12400BDE810400DF08DBB002010BD79B102000DD04A79012808BF42F046
:20FC9000C00006D002F03F0203284A7102D142F0400048717047010018BF012108467047F1
:20FCB00070B53C4D0446287FFF2815D00A200CF0F7F9060010D0D020307074700820B070D1
:20FCD0000622A87FF07005F12401301D0CF0DCF9287F31460CF0A2FAE87F01280FD12F488F
:20FCF000006818B18068010018BF8047BDE87040294800784EF6602204210CF03EB870BDF4
:20FD10002448806870472348C068006870472148C1680A68521C0A60007FFF281CBF4FF476
:20FD300080410CF0BFBA70471A48807F704738B50446184D05F110000DF02AFB05F11000E4
:20FD50001CB9A97F09B105F1240032BD70B5114D0446287FFF2819D00E200CF0A1F9060085
:20FD700014D0D020307074700020B070062205F11001F01C0CF088F9E88A70813146287EA3
:20FD90003073287FBDE870400CF048BA70BD0000E4440020B8440020704500207445002077
:20FDB00004F09CBA264800E02648006800B101207047010001D0172801DBFF2801D1012035
:20FDD0007047002070472DE9F04D0D4693460024BBF1200F80461F462C7003DB0020BDE89D
:20FDF000F08D0419E0B25845F8D2E4B23E5D641C002EF3D0E4B231198B45EFDB17F804A091
:20FE10005046FFF7D6FF641C0028E7D0701EC2452870E6D1E4B23819E1E70B490A78104356
:20FE30000870704708490A7832EA0000087006D10648006818B14068010018BF0047704748
:20FE5000304300202C430020344300203C4300202DE9F04104468846122740464FF6FE7168
:20FE700088421646DFF8705908D1A86950B30268100027D041462046904720E04FF6FF71D5
:20FE9000884212D1A86938B10268100004D0414620469047070005D03146204600F0DCFA1A
:20FEB00007000FD12C706E700CE004F034F948B10078A04205D1314640460DF06DFA0746ED
:20FED00000E003273846BDE8F08110B5044684B000F072F808B9022029E02088012104F02D
:20FEF00048F908B9142022E0208804F053F9042812D1DFF8E40881894FF6FF72914218BF96
:20FF1000112014D12188818161888180A188C180E188018121894181002002900190208979
:20FF30000090E388A2886188208807F09DFD04B010BD30B5044685B02088402104F019F976
:20FF5000002836D02088ADF8040000F035F8002500281CBFA07A002807D10021684600F0F4
:20FF7000D0F9A07AF0B102251CE091208DF800008DF803503E208DF80100012106208DF80B
:20FF90000200A088ADF808006088ADF80600E088ADF80A002089ADF80C008DF803506846F0
:20FFB00000F0AFF920880022402104F080F8284600E0122005B030BD2389E288A1886088B9
:20FFD00007F02EBC70B50C46DFF810180978022918BF0129154601D1122070BD0DB9022099
:10FFF00070BD04F098F8060001D1142070BD1CB14A
:020000040001F9
:20000000307940F00200307100F0E5FB2869B062002070BDF8B506000C4601D10220F2BDFC
:20002000308804F080F8050001D11420F2BDDFF8BC070078022818BF012803D0A87C08287F
:2000400002D10CB11220F2BDDFF89C77786908B11120F2BDB0200DF0C5F8786108B9132074
:20006000F2BDB02200F0C7FA786931884180A022311D001D0CF010F8796902200870A87C22
:200080007969328808280CBF012000200B1DDFF86017097804F044FE06461CB1214628466D
:2000A00005F057F8300018BF00F05AFA3046F2BD38B504460D4604F036F808B9142032BDFC
:2000C0008DF800506946204604F077FF32BD38B50022A0B101230624E4B2051915F8015C11
:2000E000303D0A2D0BD203FB05220A256B43641EE5B2002DF0D11046BDE8344001E0022004
:2001000032BD30B505460C4685B0204604F00BF808B9122019E0DFF8DC06854228BF022067
:2001200013D21022002168460BF0B4FF280A8DF801008DF80050280C8DF802002146280E46
:200140008DF80300684604F032FE05B030BD2DE9F0418046DFF894060078022814BF012887
:20016000122082B00C4615461E462FD00EB902202CE0404603F0D7FF070008BF142025D0D0
:20018000F86A08B10DF03FF81C2130460CF04EFA0100F96208BF132018D0B87C08280AD19C
:2001A000089840B1887E009001F112030A8A404604F0FAFF00E00020397941F004010CB165
:2001C00041F002010DB141F020013971BDE8F6812DE9F0410D4603F0A6FF04001FD0A562E9
:2001E00000F006FA0546C0B200B92578A66A94F8058010200BF05CFF070010D0D0203870D6
:20020000062200207870A11D0920B87087F80380381D0BF041FFFE603946E8B21EE0BDE8F3
:20022000F0812DE9F04104460D4690461F460E200BF03EFF06000FD0D0203070062200200B
:20024000707041460C20B070B580B01D0BF024FF37733146204601E0BDE8F081BDE8F04177
:200260000BF0E4BFF0B50C0087B050D0A079DFF87865002830690CBF0825042508B9DFF891
:2002800078050778042D08D1DFF87005006820B1416808001CBF00208847207D059004F131
:2002A0000803608A04903946208A0390E08902900195A0880090E279E07800F071F8E0784C
:2002C00080B9172004900122E089039002950020019004F108000090E379A188384603F030
:2002E000A1FEE070306908B100F055F9307801000DD0717800F0B8F848B1E378312B04D0EC
:20030000A2883178184600F079F80020307007B0F0BD10B5044684B0A08851B10021029106
:200320000191A189009163892289E18807F016FB1FBD04B0BDE810403B2107F011BB70B59F
:2003400004460026A08803F0EEFE18B10678A08803F09BFEDFF890542878010007D0864230
:2003600005D1697800F080F848B100202870300005D0A379A288A078314600F03FF86869DB
:2003800008B100F0EDF8A08803F00CFF042802BFA088A989884204BF4FF6FF70A88170BDCB
:2003A0002DE9F0410646884617461C4616200BF07FFE050020D0D02028706E700520A870D7
:2003C000EF702CB106222146281D0BF065FE04E006220021281D0BF05DFE069868812946F1
:2003E000079828730898E881099828820A9868820B982875404631E7BDE8F081F8B50446F8
:200400000D4616461F4608200BF052FE48B1D021017044700621817086808771014628467B
:20042000ECE0F1BD2DE9F04105460E46174698460C200BF03DFE040014D0304603F073FEFD
:2004400008B9DFF8B4030078D021217065700721A170E570A680E780A4F8088006996181BE
:200460002146FBE6BDE8F08110B50C4603F070FE28B140882146BDE810400CF095BF122027
:2004800010BD2DE9F84F0746894692461C46484603F049FE5FEA000B1EBFD34D69690029C8
:2004A0005CD051F8A42F182002B134208A6802B1143004B11C30496801B1173080B20BF0F4
:2004C000F7FD06004AD0182200F095F800F090F85FEA000808BF9BF80080D0203070777037
:2004E0000A20B070A6F8049086F806A006F118076969D1F8A40040B1B7603846D1F8A41004
:2005000000F11C071C220BF0C7FD6969D1F8AC0040B1F7603846D1F8AC1000F114071422F6
:200520000BF0BAFD3CB13761384600F11C071C2221460BF0B1FD6869D0F8A81031B1776199
:200540001722D0F8A81038460BF0A6FD31465FFA88F00BF06BFEBDE8F14F01E0BDE8F18F2F
:2005600010B5A14C6069A8B1D0F8A40008B10CF04AFE6069D0F8A80008B10CF044FE606945
:20058000D0F8AC0008B10CF03EFE60690CF03BFE0020606110BD10B5934C206940B10CF030
:2005A00032FE002020610420BDE81040FFF742BC10BDF8B504460D46284603F0B4FD06002E
:2005C00015D000F015F8070008BF377806200BF06FFD06000BD0062200F00DF8D0203070A1
:2005E00074700E20B070B5803146F8B206E0F1BD2620FFF746BA00210BF04CBDBDE8F440A5
:200600000BF014BE2DE9F84305460E4617469846304603F088FD5FEA00091ED010200BF089
:2006200047FD040019D01022FFF7E5FFFFF7E0FF08B999F80000D021217065700F21A170BE
:20064000A680277284F80980C0B20899A1720999E1720A99E160214631E0BDE8F1832DE930
:20066000F84304468846914603F05DFD070024D014200BF01DFD05001FD0FFF7B9FF060017
:2006800008BF3E78D0202870062200206870B91D0B20A870E81C0BF0FFFC6C8118F001012B
:2006A000C5F8109018BF01212973F0B218F0020118BF01216973294601E0BDE8F183BDE8B8
:2006C000F4430BF0B3BD2DE9F84F814692469B46504603F028FD06000A9FDDF82C800C9C15
:2006E0000D9D32D05FEA09002FD1307940F010005FEA4B714CBF40F0020000F0FD005FEA9B
:200700000B714CBF40F0200000F0DF00002F08BFB8F1000F07D1002C08BF002D03D100F0C9
:20072000FB00307111E040F0040030711DB12869B06200F050F847B1F06A08B10CF063FD47
:200740001C2138460BF072FFF062274E706900283FD087B1D0F8A40028B91C200CF042FD9F
:200760007169C1F8A4007069D0F8A40018B11C2239460BF091FC8CB17069D0F8A80028B988
:2007800017200CF02FFD7169C1F8A8007069D0F8A80018B1172221460BF07EFC8DB1706981
:2007A000D0F8AC0028B914200CF01CFD7169C1F8AC007069D0F8AC0018B1142229460BF0A6
:2007C0006BFC43465A465146484601B0BDE8F04F57E6BDE8F18F1022294606F118000BF0C2
:2007E0005BBC07490860704734450020D54400207045002040420F00D4440020744500202A
:200800003843002070B5DFF80466054630680C4608B1112070BD00F0E7F801D1122070BD8B
:20082000DFF8EC05806800281CBF0078002801D1102070BD0C200CF0D5FC306040B3012099
:20084000FFF7F3FA306805700021306841700A222146801C0BF020FC00F0CFF9040002D06A
:2008600000F0B4FA15E0DFF8AC050078032810D11D20FFF706F9DFF8A015088048B1DFF8C3
:200880009C0500784EF6602204210BF07EFA00E01324204670BDF8B50C46DFF88415097847
:2008A0001546052211421E4627D0012CDFF8601502D18F680FB301E0CF68F7B1202D02DA1A
:2008C0002A0002D00EB90220F2BD08701F220021781C0BF0DFFB2A463146781C0BF0DCFBF4
:2008E0003D70284624B1791CBDE8F4400CF060BD791CBDE8F4400CF05FBD1220F2BD38B52D
:20090000DFF80845216809B9122032BD0978814201D0032032BDDFF80455287802210BF032
:200920001CFADFF8EC1400204880042128780BF014FADFF8E4140020088003202168487039
:200940000020BDE832400CF03BBDF8B5044600F04BF801D11220F2BD1CB12078FFF731FA09
:2009600008B90220F2BD6078801C202823DA207800F0AEF908B11820F2BDDFF894546B68CB
:200980000021002202E0B61C71181B685BB15E68767828B9C9B27718BF1C202FF3DB012090
:2009A000B61CB218F1E7D0B238B16078D2B28018801C202801DB0B20F2BD08200CF012FC98
:2009C00006000FD0082200F087F8686830B100E0084601680029FBD1066000E06E60746074
:2009E0000020F2BD1320F2BDDFF83404007805210842704780B500F027F801D1002002BDA3
:200A000000F066F900B1406802BD10B500F01CF801D1002010BDDFF8F8335968002201E021
:200A20000A46096869B14C6824788442F8D14C680868002A14BF1060586008460CF0E3FB8B
:200A400000E00024204610BDDFF8D4130978052211427047DFF8C80300780521084218BF8E
:200A600000F043B91220704770B5DFF8A443A06818B10CF0C8FB0020A060E06818B10CF001
:200A8000C2FB0020E0600521DFF89453287808421CD004F1100000F0AEFB287800260521F5
:200AA000084211D000F077F9A06060B100F013F800F071F9E06010B100F00DF804E0A06863
:200AC0000CF0A1FBA6601326304670BD002000F092FB002070BD202200210BF0DBBA2DE9A9
:200AE000F0478288DFF82463DFF82453316842F20607D31B4FF0010805D09B1E012B60D906
:200B00009B1E0FD00BE08068007841B1020003D1012048700CF054FC01006BD038E04FF072
:200B2000000867E0806807780029F8D04878BD4C012833D100F058F9DFF8E092B0B101200C
:200B4000FEF79FFF8246BAF1420F0AD399F800004EF6602202210BF018F9AAF13C0068801C
:200B600010E04FF47A7000FB0AFA02E0FEF789FF8246BAF1000F05D099F800005246022157
:200B80000BF0CEF8316802204870207818B9384600F004F92EE0002020702BE0207848BBE9
:200BA00003200BF085FA48B1D02101704770042181700146306800780BF038FB00F006F9FC
:200BC00018E080680778287842F208018A420CBF01260026FF280DD004200BF069FA01006E
:200BE00008D0D02008704F7002208870CE7028780BF01CFB4046BDE8F087F0B5834F386833
:200C000085B070B3847800F009FA28B10A20FEF738FF05460B200DE000F0E6F828B106202E
:200C2000FEF72FFF0546072004E00820FEF729FF05460920FEF725FF064676480078FFF7F1
:200C400032F83968CA7A039203468A7A029228460A1D01922246C978009131460CF0B4FB8B
:200C600000E0012005B0F0BD38B5014667486B4D02682878664C01291ED161880B0002D0DB
:200C8000684B1B7823B112B31078BDE8324036E63C29A8BFA1F13C000CDA02210BF05DF8C7
:200CA00060884FF47A7101FB00F2287802210BF037F80020608031BD4AB1594909784907E7
:200CC00005D502210BF049F8002060807CE031BD4F49496800E0096829B14A68127882421D
:200CE000F9D10846704700207047F8B54C48007800240521084201D11220F2BD444DA868AD
:200D000010B900F048F8A860E86810B900F043F8E860A86800281CBFE968002901D11320B4
:200D2000F2BDFFF7D8FEE868FFF7D5FE6E6812E09B1C50185918401C117071684978491CEB
:200D40000170716809784170801C71684A7849680BF0A2F93668AA6896B13CB9706811784C
:200D600043785F18BF1C202FE2DB01247368E9685B780A789B1C88189A18401C0A70DCE712
:200D80001078511C0CF014FBE868411C00780CF013FB0020F2BD20200CF024BA38B51B4DE6
:200DA0000446286878B103200BF082F948B1D02101704470032181700146286800780BF029
:200DC00035FA04B100E031BDBDE8314010B50F4C206840B10CF017FA002020600120BDE83F
:200DE0001040FFF727B810BD80B50948806858B10278431C69460120FEF7EDFF20B10078B7
:200E0000C00701D5012002BD002002BD3043002050450020D6440020D844002070450020E3
:200E2000D5440020D744002038B504460D4603F07AF9A0B1807C042801D0122032BD374864
:200E4000006808B190F899502946684603F0A1FB334B6A460221204605F05CFD32BD14202C
:200E600032BD80B52F480078400707D52E48FFF7B8FC2E494FF6FF70088001BDBDE80240C4
:200E80000020FFF7AEBC7CB5012403280D4610D042F21301884204D04FF6FF7188421ED0CB
:200EA0002AE0A8780C2818BF112826D100F027F823E0E878A9881D4E1A2804BF3388994224
:200EC000F4D06A8900922B89EA88FFF7ABFAA8883188884211D14FF6FF7030800DE0687941
:200EE0000024122809D1ADF80040297968886A4602F049FB012400E00024204676BD38B5AE
:200F00000A4C20884FF6FF75A84205D008490A78084902F04BFB258031BD000048450020BF
:200F200043680100D54400206C450020404500207045002038450020B2494870704710B5B5
:200F4000B04C20700AF0F6FB2078BDE81040052102F0CCBA7CB5AB4D28780C46210419D5C1
:200F60000BF0D6F8060084F4004411D000F058F858B93078A22806BFA34800786878FF2813
:200F800003D031460BF052F902E030460BF0A5F8204676BDE10709D5A86820B141680800E0
:200FA0001CBF0020884784F0010076BDA10709D5686820B1416808001CBF0120884784F0A8
:200FC000020076BD610727D5904E31880A001DD0481E308080B2E0B9FEF7ECFE48B18C495C
:200FE00001200870686820B1416808001CBF01208847FEF781FD694603F05CF96846FEF72E
:2010000029FE1D20FEF73DFD308002E004210AF0A4FE84F0040076BD002076BD03F0C8B879
:2010200038B502780124912A4FF6FF7102D0A22A76D07BE04278052A49D00E2A04D00F2A2E
:2010400048D03E2A69D071E082886E4941F20905531B2DD040F6F9755B1B2FD0DB1E31D006
:201060005B1E08D09B1E022B05D9DB1E012B15D9DB1E08D05AE04968002958D009680A00C0
:2010800055D0884750E06349096800294FD04B6819004CD0014642F20E003CE08968002920
:2010A00045D00B68190042D00146104698473BE08068411C0078FEF78DFD35E08068FEF7B8
:2010C000A7FD31E080680078FEF7F2FD2FE0FFF736F92CE0828842F20D05531B13D09B1F7C
:2010E00002D09B1F0FD021E04B4B1B888B420AD04A490968D9B10A68110018D0014642F230
:201100001300904710E04349096881B14B6819000DD001461046984706E000F00AF803E0E6
:201120000246408800F04BF8044600E00024204632BD70B505460124A8780128014611D0C3
:20114000022806D0032811D0062815D00A2809D032E02C48806880B3416808002DD02846A8
:2011600088472AE02946FFF77DF826E0A8882A4600F025F8044620E00E200AF099FF0600F9
:201180001BD0A8880122402102F099FFD02030703146E87870701120B070A888B080E888BE
:2011A000F0802889308168897081A889B081164800780BF03BF800E00024204670BD70B559
:2011C0000C46154602F0EEFF0126042804D11348006858B1026803E00E48006830B14268F9
:2011E000100003D02946204690470646304670BD0449886070470349486070470849086021
:201200007047000070450020D4440020D8440020D74400204C4500204045002038430020A2
:201220003C430020F8B5144600250E46C24FC34B40B1012815D0042818D006281ED0072812
:2012400022D02CE0162928DA1622002107F10C000AF020FF3246214607F10C000AF01CFFE1
:201260001EE0022E19D12088388119E0082E14D13846214608220AF0BBFA11E0012E0CD126
:20128000DA6903F1280104E0012E06D1DA6B03F14801207800F03DF802E0182500E002259F
:2012A0002846F2BD10B50B460024A34920B1012808D0042809D00DE015220C3118460AF05B
:2012C000EBFE08E00889188005E0184608220AF08FFA00E00224204610BD7047002070475D
:2012E00001460020C90706D50FF2582393481022072101F05FB9704701460020C90704D55B
:201300008E484089002101F080B970478C490860704710B50B7884074CBF43F0020303F02F
:20132000FD0304064CBF43F0800303F07F0304074CBF43F0080303F0F70384064CBF43F064
:20134000200303F0DF030B70AA21084203D0107840F00C0003E018B9107800F0F3001070CF
:2013600010BD2DE9F0410F461546387802281E464FF000085ED1786801784078069C01EB56
:20138000002080B221001CBFB0F5285F0B2056D14FF42851401A08D0401E1AD0401E28D0F5
:2013A000401E1ED0401E2AD044E0F8680BF01EF9079A80B2031B9342B8BF021B92B210192C
:2013C000162803DA3280F86801190EE04FF00D0834E0F8680088022131802870000A68703A
:2013E0002CE0062030800622F96828460AF054FE24E001203080F868007828701EE0F86825
:20140000B0B108213180018829700188090A69704188A9704188090AE97081882971818837
:20142000090A6971C188A971C088000AE87105E0308003E0A6F800804FF001084046BDE8A8
:20144000F0812DE9FC4B0E46804630780027022891461D466BD17068017840780A9CDFF8AF
:20146000E0B001EB002080B24FF42851401A06D0401E29D0401E4CD0401E38D057E0F068EC
:201480000BF0B4F880B2A04204D32919162903DB0D274DE007274BE0F3682A464946181916
:2014A0000AF0FAFD2C19F068A4B2C4F11602002120440AF0EFFDDBF80000002838D00268A3
:2014C000100035D0002121E07CBB022DE0D199F8000099F8011000EB0120F1680880DBF8CB
:2014E000000028B30268100022D001210EE0E4B9062DCDD1F068062249460AF0CDFDDBF881
:201500000000A8B10268100012D00321404690470EE054B9012DBBD199F80000010013BF7C
:201520000128F1680870802702E00B2700E001273846BDE8F68B000080450020A44500205C
:201540004043002063130100431401000000000070B5DFF8285B2878062460430BF042FEF2
:20156000DFF81C1B086008B9132070BD0020FF2206E03380401C0023F270B2703371C0B2E1
:201580002B7898420ADA0B6804FB00F61E4400280CBF4FF6FE734FF6FF73EAE70FF241505D
:2015A00000F0A2FD0FF60520FDF782FE0FF6452002F029FD002070BD70B50446208868B1FF
:2015C00060680378426800F0B4F948B9606803784268DFF8B00A00F0AEF908B9022070BD5B
:2015E000A078C01F0A2801D3182070BDDFF8985A2888010004D02188C0F58030884201DA88
:20160000012070BD0C200BF0EDFD060001D1132070BD002009E061682A8880B201EB001180
:20162000401C4A812988491C298081B222889142F1D30020306008222146301D0AF02CFD9F
:20164000686810B96E6004E0084601680029FBD10660002070BD38B502460846DFF8281A44
:201660004C68002301E02346246894B1A5686D899542F8D12268002B0CBF4A601A6018B168
:201680000822211D0AF008FD20460BF0BCFD002032BD012032BDDFF8F4190870704770B572
:2016A0000D460446287A4107164605D5304600F04BF90122014606E0410609D5304600F0E8
:2016C00043F9014600222046BDE8704002F09BBDC10614D5304600F037F900F0F1F960B927
:2016E000304601F05FFD030005D029462046BDE870400A2218470E2070BD082070BDC00723
:2017000001D4022070BD002070BD2DE9F0410D460446287A0126000790461F460CD5404602
:2017200000F012F900F0CCF90026010004D0797A91B3397A01292FD1287A000609D54046DE
:2017400000F002F90146002200F0BCF90026010022D1287A810619D5404600F0F5F800F00C
:20176000AFF930B1787A10B1387A012801D0082012E0404601F016FD030005D02946204630
:20178000BDE8F041122218470E2005E01EB1800758BF032000D50020BDE8F0817CB50446B7
:2017A000002000900D460223DFF8E4284FF6FF71012000F02CF8060026D0002304221D21B1
:2017C000204600F0C7FD0190E0B170890199ADF800002B460420ADF802000022012008709E
:2017E000002001994870FF20019988700199C8706946204600F00AF9040006D001980AF07F
:2018000022FC02E0152400E00124204676BD2DE9F0478146DFF8700844688A4690461E46D8
:2018200000E02468FCB1002700E07F1CA188B8B28842F6D2A068BFB200EB071568894845CA
:2018400028BF8245F1D33EB12978686833464246FEF77EF80028E8D0089810B1A16849892E
:201860000180284600E00020BDE8F087F0B5DFF81828546800E02468E4B1A5686E89B042EE
:20188000F9DBA788BA199042F5DA4FF0000C01E003F1010C1FFA8CF2BA42ECD21FFA8CF3BB
:2018A00005EB0312B2F80AE08645F1D101B10E801046F0BD0020F0BD2DE9FC41044600272E
:2018C000ADF804704FF6FF786089404515461E4608D001AA0092401C2378626880B2FFF708
:2018E00096FF07462378626800F023F830B923786268DFF8900700F01EF808B160890CE046
:2019000023786268DFF88C0700F015F858B11FB1BDF80400A84203D0284600F0D6F803E09D
:201920007889404400E0608906B130803846BDE8F681DFF864070221FEF70AB880B500F017
:20194000F7FA00B1008802BD80B500F0F1FA08B1807802BD102002BD70B5012982B0044664
:20196000154616D0032918D0052925D0072927D0092929D00B292BD00D292DD00F292FD004
:20198000112931D0132933D0172934D0192936D039E02946FDF78FFC33E001F059FEADF83A
:2019A000000069462046FDF78FFC06002CD12988204600F07BFC27E02946FDF791FC20E01B
:2019C0002946FDF7A5FC1CE02946FDF7B1FC18E02946FDF7C3FC14E02946FDF7CDFC10E0CD
:2019E0002946FDF7D7FC0CE02946FDF7E2FC08E0FDF7F0FC05E02946FDF7F2FC01E0FDF7B1
:201A0000FCFC064600E00226304676BD2DE9FC410E46054617461C4601A900F096FA804630
:201A200038BB380014D00020ADF8000069463088FFF71CFF012FBDF8000018BF0027FFF781
:201A400083FF01463A46284602F0DDFB804680B931462846FDF7E2FC804650B9019DFF2CB7
:201A600007D0AB1C1E2229460FF25D5000F000FCEC704046BDE8F6817CB50D460446164657
:201A800001A900F062FA172819D0300013D00020ADF8000069462888FFF7E8FE012EBDF831
:201AA000000018BF0026FFF74FFF0146324600F009F8010003D129462046FDF7A4FC76BDC4
:201AC00001460122204602F09EBB10B50446FFF735FF01001CBF611E0C18A0B210BD000014
:201AE0002DE9F0430D4689B08146A87800261E28174614D1484600F03CFA06001EBFB078BD
:201B0000FE28FF2822D0002000900022AB78F078494600F082FB304600F040FA16E012285D
:201B200004BF6878012813D0484600F022FA06000ED0327910000BD0100607D4A978484642
:201B400000F0C7FB307940F080003071002069E0DFF838452078FF2812D0A878811E17297C
:201B60000ED200F08AF958B1A87800F0B3F938B1287810B96878012804D1A878122801D0F2
:201B800006204FE0A87800F078F9844602A80090AB88AA6869782878E0470028804640D17F
:201BA000A87800F097F9024602A9484690478046D8B9AB78042B34D002A80090002220788C
:201BC000494600F02AFB804658BBA97802A800F097FB08B100203870A878122804BF6978BC
:201BE00001291ED0EEB130711BE06878C8B9A8788DF800008DF804806946A878042818BFB1
:201C00000628BDF80800ADF802004846FDF753FB28B16B4601221621484600F03DFB4FF089
:201C20000008404609B0BDE8F083002070472DE9FE430D46804628886988814201D30100C5
:201C400001D101206DE00021ADF8041002914FF6FF7900E0401C00210091002369880022F6
:201C600080B2FFF7D4FD070037D0BDF80400002838D16B464A460521404600F06BFB04002C
:201C800001D111204DE002943878022806D101208DF80600BDF80000860827E002208DF830
:201CA00006001221BDF8000090FBF1F63878102813D1788904F8010B102200F034F810345D
:201CC000BDF80400401CADF80400B1B2BDF80400884202D278894845BCD1BDF8040080B97F
:201CE0000A201EE09DF806000128DFD138780228F3D1788904F8010B022200F014F8A41CC1
:201D0000DEE701A94046FDF7EBFA48B101AB05221621404600F0C0FA10B102980AF093F9E1
:201D20000020BDE8FE837889000A04F8010B204679680AF0B1B910B582B04C88088884427E
:201D400001D3020001D1012016BD00F016F808B90A2016BD002016BD10B582B04C880888DD
:201D6000844201D3020001D1012016BD00F005F808B90A2016BD002016BD002200924A1D48
:201D80000B79214643E510B5044682B0084669460088FFF76BFD08B9012016BDBDF8002082
:201DA00001462046FFF77BFC16BD70B582B006460D46002401E0641CA4B2A888844229DA6C
:201DC000286810F8142000EB44006946407802EB002080B2FFF74AFD50B9286810F8141060
:201DE0000170286800EB440149784170012076BDBDF8002001463046FFF751FC0100DAD06C
:201E0000296811F814200A70296801EB440252784A7076BD002076BD10B50C4682B02088BC
:201E20006188814200D308B9012016BD23799A48621DFFF780FD08B9102016BD002000908A
:201E4000237961882088621DFFF7E1FC08B90A2016BD002016BD38B504460D466946288869
:201E6000FFF704FD08B9012032BDBDF8002001462B462046FFF749FC32BD022814D0042843
:201E800014D0062814D008281AD00A2812D00C2812D00E2812D0102812D0122812D016287C
:201EA00012D0182812D013E07C4870477C4870477C4870477C4870477C4870477C48704749
:201EC0007C4870477C4870477C4870477C48704700207047022814D0042814D0062814D00F
:201EE000082814D00A2818BF0C2812D00E2812D0102812D0122818BF162810D0182810D02E
:201F000012E07048704770487047704870477048704770487047704870477048704770480E
:201F200070470FF20900704700207047002070475549496800E0096829B18A685289824270
:201F4000F9D1081D70470020704710B50C4600F010F860B104B120608078FE2801D1172088
:201F600010BDFF2801D1002010BD162010BD022010BD10B5424A1268002100E0491C3F4C00
:201F80002478CBB2A34207D2C9B206234B43D45A8442F3D1D01810BD002010BD10B50446CF
:201FA000A01C00F06DF9FF20E07010BD10B50C46FFF7DFFF30B101794A1C944204BF01F09D
:201FC0008001017110BD000010B582B004001EBFA078FF28FE280BD0002000901E2321888F
:201FE000E078172200F019F9FE20A070FF20E07013BD000070B504464FF6FE70844282B0C7
:2020000037D008004FF6FF760AD12046FFF7B1FF78BB3046FFF7ADFF05002AD0048073BD12
:20202000012906D12046FFF7A4FF050021D02E800BE002291DD10121204602F0A2F8C0B96B
:202040002046FFF796FF050013D0A878FF280ED0FE2807D0002000901E23E8781422214697
:2020600000F0DBF82846FFF799FFFF20A8700020287173BD0448008870470000354300205E
:2020800044430020D8240100144600207F45002010250100E0240100D424010029F50000EC
:2020A0005BF50000DBF50000D1F6000041F700007FF700006FF60000F1F60000E5F7000063
:2020C00065F800002B1C01002F1C0100371D0100591D0100871D0100AB1D0100191E01009D
:2020E000571E010070477047824908607047814948607047804908707047032290FBF2F05F
:2021000080B201F077BA0178B02904BF417800290CD10179122903D1417C012906D101E06F
:202120001B2903D14088012101F081BA704710B5724C607002F050F8401C20700421607844
:2021400001F0D4F9BDE81040FFF702BA38B50C46200411D56948407809F0DAFF050008D0B9
:202160002878A02804BF284600F008F8284609F0B4FF84F4004032BD002032BD30B587B0EA
:20218000044601208DF8000001A92046FDF786F905002AD19DF806105648C9070AD5436829
:2021A000180005D060886A4601A9984705461CE006251AE00368180006D060886A4601A90A
:2021C0009847050001D110E006259DF8050060B99DF806008DF810008DF814500020ADF89D
:2021E000120004A96088FDF766F89DF8000000281EBFA068002809F026FF45B99DF8060065
:20220000122806BF9DF8051001291B2803D06088012101F00CFA07B030BD2DE9F04104469F
:20222000FF2C0D46164698461FD0202009F040FF070018D0B02038707E707D8087F804802A
:20224000069929B1182207F1080009F025FF04E0182207F1080009F01DFF3946204609F09D
:20226000E5FF002002E0132000E00220BDE8F08110B54FF47A746243BDE810400AF0E6BA03
:2022800010B504001EBF2078FF28FE2803D00AF070FAFF20207010BD80B5009313460A468F
:2022A000014615480078FFF7B8FF02BD30B583B004460D46FDF7A7FB50B901A80090ADF864
:2022C00004507F230C48007800222146FFF7A5FF37BD00B583B07E238DF804108DF8052059
:2022E00001A900910022014603480078FFF795FF07BD0000484300201C4600203543002064
:20230000052923D006291BD0072918BF09291DD00B2918BF0D2919D00E2913D00F291CBF05
:202320001129122912D0162918BF17290CD01B2918BF1D290AD0522918BFD22906D007E0CF
:20234000C06870470068704780687047406870470020704770B5052914461D4616D0062985
:2023600012D0092918BF112910D0122912D0162918BF17290CD01B2918BF1D290AD0522953
:2023800018BFD22906D007E0072606E0022604E0052602E0032600E001264FF6FF729442C6
:2023A00003D1FDF745FB841B02E0D22908BF0C34301980B201F0F0FD38B105B12C8071423B
:2023C000BDE8704009B209F011BE70BD80B5FFF797FF18B1BDE8024009F035BE01BD704726
:2023E0000022022970D10178407801EB002080B24FF4C051401A2CD0401E2DD040F6FF7135
:20240000401A2CD0401E2DD0401E2ED0401E2FD0FD3830D0401E31D0401E32D0401E33D0FD
:20242000401E34D0401E35D0401E36D0401E37D0401E38D0F83839D0401E3AD0401E3ED09B
:20244000401E39D0401E3DD0401E08BF0FF2C0023AE00FF2780237E00FF2740234E00FF28A
:20246000740231E00FF270022EE00FF270022BE00FF26C0228E00FF26C0225E00FF2680280
:2024800022E00FF268021FE00FF264021CE00FF2640219E00FF2600216E00FF2780213E046
:2024A0000FF2740210E00FF274020DE00FF24C020AE00FF24C0207E00FF24C0204E00FF2AE
:2024C000440201E00FF24402104670470018000001180000002800000128000002280000D5
:2024E00003280000002900000129000002290000032900000429000005290000002A000082
:20250000012A0000022A0000032A0000042A0000052A00000629000007290000082900004A
:20252000DFF86C1C0870704738B5DFF8684CDFF8685C20762878C0000AF054FEE061C8B1FE
:20254000002108E04FF6FF7220F8312000EBC10300225A60491C2A789142F3DB052000F00B
:20256000AFF8207EFFF797F8BDE83240DFF82C0C01F049BD31BD38B50C46200418D5DFF85F
:20258000140C007E09F0C4FD05000ED02878B02808D1284600F007F920B1297905F10800E0
:2025A000FFF714FF284609F098FD84F4004032BD002032BD7CB506001C460DD0ADF8001035
:2025C0008DF8022001966846FEF7F6FF05001AD1CCB17689300001D1022514E00C200AF076
:2025E00001FE08B913250EE00021016086808460DFF8AC1B0A6812B9086004E00A46116899
:202600000029FBD11060284676BD30B50C46DFF8901B0546086883B0002201E0024600685A
:2026200098B18388AB42F9D10368002A0CBF0B6013600AF0E8FD69462846FFF70CF801005A
:2026400002D10CB1019921603EBD01203EBD70B550BB012926D1DFF83C0BC169002300E01C
:202660005B1CDFF8344B2478A34217DA31F833404FF6FF75AC42F3D0002400E0641C467ECD
:20268000E5B2B542ECD201EBC305E4B26D680C266643AD5B002DF1D0012070BD1078BDE883
:2026A00070400DE0182070BD022070BD0022002803BFDFF8E00A407E087002221046704795
:2026C0002DE9F843DFF8CC7A0446002078760C25F869DFF8C46A406805FB04F870B10AF0DE
:2026E00092FD002006E0F969C0B201EBC00100224A60401C3278C1B29142F4D3307808FB3A
:2027000000F080B20AF06EFD5FEA000928D0307808FB00F20021484609F0BCFC00200FE0DC
:20272000516805FB0CF34FF0000E21F803E019440CF1010CC1F808E0A445F1DBC144401C7A
:202740003278C1B2914208D2F969C0B201EBC0024FF0000CC2F80490EEE77C76002000E0CD
:202760001320BDE8F28301460020C90705D5002310220121DFF82C0C1CE770470146002054
:20278000C90704D5DFF81C0C408900213DE77047DFF80C1A096821B18A888242FAD18868FB
:2027A0007047002070472DE9F04186B004460020ADF8100001208DF81200DFF8D859286A9D
:2027C00038B900F045FF0AF00DFD0028286200F0E28018220021284609F05CFC2079461CB7
:2027E00002284FF6FF7817D006282CD008282FD00A2833D00C2857D00E2800F08B801028BA
:2028000000F08D80122800F08F80162800F09380182800F09780BBE000F01AFF288029463F
:202820006088FCF751FD00282189288804D0814228BF01462980A0E0814228BF0146608826
:20284000FFF734FDA4E004A9204600F0AEF87DE004AA0021204600F02CF977E000F0A0F89E
:20286000070052D0608805AB42460B21FFF772FD03006B6024D02079BDF816200390009510
:202880003946BDF8140002900020019000F026FA070004D160882946FCF760FD29E0162FCC
:2028A000686808BF00272BE000F07AF807002CD0608805AB42460D21FFF74CFD686020B9BC
:2028C0002089ADF81000112745E02179BDF8162003910346BDF8141002916189019100955E
:2028E000394600F0FBF9070006D160882946FCF743FD002841D12AE0162F686808BF0027C6
:2029000009F0A1FB380001D121E001272089ADF810001CE004A9204600F06EF916E004A988
:20292000204600F0E9F911E00DF1120204A9204600F086FA0AE00DF1120204A9204600F0DA
:20294000C0FA03E004A9204600F029FB0746380011D0162F11D0607814280CD02079287006
:202960002F712946BDF8100068806088FCF7A3FC08B1012601E0162F0AD160882B46F2B243
:202980001621FFF789FC18B1F1B22846FFF71EFD2046FFF7B8FB9DF8120006B0BDE8F08118
:2029A00020890DF11601FEF761BF2DE9FA47044686B06088DFF8DC57FDF73AF880460DF191
:2029C000120000F0D4F8002781464FF0FF0AB9F1000F5BD009E0BDF810304354BDF81000D5
:2029E000696892B2000A8854571CBFB2A8F1050087424BDA207903900026A8F1070080B248
:202A00000290019605F11A0000902B6ABDF812206088494600F0CCFB002802BF6A8B208ABB
:202A2000904214D1296A606909F010FE78B1686858B900F055F90721FFF78CFC686020B9ED
:202A4000069920890880112030E0B9F80A60BDF81220618904AB4846FEF72EFF002E814625
:202A6000B5D06868C655781C6A6880B231121154411C4A1C6868B9F1000F89B2ABD100F8AB
:202A800001A092B2686800F802A0571CB8B248B13F04B80C288029466088FCF739FC28B10A
:202AA000162003E00699208908800A2008B0BDE8F0872DE9F043044685B0608888469146DA
:202AC000FCF7B6FF851EADB2DFF8C87601E0401C2081A81E398988422FDB5FEA08002CD1AF
:202AE00004A800F044F8060027D0708920813146BDF810206088FEF7D2FD5FEA00081CD121
:202B000020793B6ABDF8102003903146A81E80B200F0EBF800F0E2F85FEA00080DD17389C8
:202B20007A8B396A608800F02AF85FEA000804D120894FF6FF718842C9D1388901000AD06F
:202B4000798890FBF1F0388039466088FCF7F0FB50B1162008E05FEA08002089A9F8000051
:202B600008BF4FF00A08404605B0BDE8F0830090237B6189208904F10D02FEF748BE2DE914
:202B8000F8468246894615461E46FCF751FFDFF804460746208990B900F0A3F809215046B3
:202BA000FFF7D8FB606008B9112023E0A81C60803A1F208901466B189A4206D203E06088A8
:202BC000A91C8842F4D0012014E0401C2081606846542089411C2181310A62681154606854
:202BE00023892A464946184409F056FA2089281820810020BDE8F2862DE9F047044686B0F1
:202C00006088DFF890750D46FCF712FF0026A0F10109A0F1010814E03888798B0346C9185C
:202C20008845BCBFA9EB0000788378687A8B396A184409F031FA3888798B0818761C388087
:202C4000B6B2A0898642BCBF3888404534DAA06810F8162000EB460004A9407802EB002064
:202C600080B2FEF703FE010009D14FF0010A00F02BF8786808B109F0E6F95046DDE0207997
:202C8000BDF8102003901FFA89F000F02EF83B6A00F024F800288246E9D178680028BBD125
:202CA00000F01EF80F21FFF755FB00287860B3D100F00AF81120E1E760883946FCF76AFB6A
:202CC0000028DBD01620D9E7A06810F8161000EB4600407801EB002028807047608867E270
:202CE000608800234FF6FF72704702900020019007F11A00009070472DE9F047044686B0F3
:202D00006088DFF890548946FCF792FE059004F10D0204A80090237B61892089FEF777FD4F
:202D20000026B24607464FF0FF0810E0696801F8068080B2696801F80080461C68686A8BFF
:202D4000296AB6B2801909F0A7F9688B8619B6B2FFB1BDF8102060883946FEF7A0FC5FEA76
:202D6000000A13D12079BDF81020039039460598801F80B202900020019005F11A00009084
:202D80002B6AFFF7ABFF5FEA000A10D07889A9F80000002E48D0688896FBF0F0288029466B
:202DA0006088FCF706FB002847D0162045E07EB9FFF796FF1121FFF7CDFA686020B978894A
:202DC000A9F80000112038E0688B001D688009E0688B6988021D9142DDD10599891F8019C5
:202DE0008142D8DB69687889885579896A68701C80B2090A1154461CBDF8102061890DF175
:202E000012033846FEF758FD0746701C002FB6B28CD06A68BDF81210915580B2BDF8121071
:202E20006A68090A115488E75FEA0A002089A9F8000008BF4FF00A0A504606B0BDE8F087BA
:202E4000FEB504460D462089164602A9FEF70EFD07002ED0387A80060BD5BDF8080000F0A8
:202E6000A1F903000BD06088122239469847070020D1607C002814BF5220207901E00E2770
:202E800018E00190002000906389E2682189608800F08AFA070007D1607C68B96088FCF706
:202EA00099FA48B11620FEBD162F03D10027377002E0012720892880607C00B10027384621
:202EC000FEBD2DE9F041044682B00D4660889046012101F056F9002718B9142060700E20D7
:202EE0005BE020896946FEF7C1FC060051D0307A80060BD5BDF8000000F054F9030013D07E
:202F00006088122231469847070043D16688304600F008F928B94FF6FF7000F003F9A0B3FB
:202F2000068000219B4E02E00E2733E0491C737ECAB29A4229D24268C9B20C234B431344F5
:202F40001A88002AF2D10C2204F10801184609F0A3F8002088F800000C2204F10801304682
:202F600009F09AF8A289608800231721FFF7F2F9B06060B1A289216909F08EF860883146C3
:202F8000FCF72EFA40B1162007E0092702E0112700E00127208928803846BDE8F6812DE9B5
:202FA000F043044683B06088894600F0BBF800265FEA00084CD0207A012845D1414604F11F
:202FC000080000F051F8A0B1D8F804701820019078880090BB88BA683988608800F0E4F9E7
:202FE0000646162E02D10020B8602DE060B3388828E000270EE0019068880090AB88AA68E3
:20300000608800F0D1F90646162E18D10020A8607F1CFFB25F48407E874215DAD8F8041020
:203020000C227A430A44154629880B000CD07B1C83421DBF9089002816201820DBE7002E8D
:20304000E6D02888A9F80000404600F080F82EB96088FCF7D2F920B1162003E0162E08BFF9
:2030600000263046BDE8FE832DE9F84F0C460020002700264FF00C0B46490DE0984202BF05
:20308000BCF8025093B2AB4224D1BCF80430DF19BFB29A1892B2761C4B7E9E420FDA6368CD
:2030A0000BFB06FC9C44BCF8003043B10028E5D1BCF80470BCF802201846BA18EAE7022E43
:2030C0002DDB38004FF0000904D008F0A3FF5FEA000801D1002023E0CA461AE00BFB0AF1A9
:2030E0004518A96859B1AA8808EB090008F0D4FFA88848441FFA80F9A86808F0A4FFBAF1BB
:20310000000F04D00C220021284608F0C3FF0AF1010AB2456068E1DBC0F80880878001206C
:20312000BDE8F28F10B51B4AD269002100E0491C194C2478CBB2A34207D2C9B232F831305C
:203140008342F4D102EBC10010BD002010BD70B5044600250BE0B06808B108F074FF0C2294
:203160000021304608F096FF002030806D1C0949497EE8B2884207D26068EDB20C2169433C
:20318000461830880028E6D14FF6FF70208070BD1D46002050430020AC43002055340100EA
:2031A0007443002080B5FFF7F3FA00B1806802BD2DE9FE4F0D468046287AC00693461E46A7
:2031C0004FF0000A0CD55846FFF7ECFF030000F0E4800A222946404698470028824649D1E5
:2031E00028780C9F0D9CDDF83890022816D100F018F94FF42051401A012810D9801E3AD064
:20320000401E14D0FD3876D0401E00F07D80401E6AD0401E6FD0401E00F09180A7E0002C5F
:203220002AD1E868017839800278416883E0002C22D1012038800021E86800783070688919
:20324000401C80B2FEF712FB398860B10278921C51183980418971704189090AB17002789F
:203260004168F01C68E0081D388004220021701C08F010FF93E0002C62D1E86804880420C8
:2032800038803470200A70700DF102012046FEF7EDFA05001ED0EC68BDF802204FF6FF78AB
:2032A0006B464146FEF708FB40B92B786A688C480221FCF74DFB08B9ADF800802078022896
:2032C0000AD161680222301D08F0E6FE3888801C388001E0ADF80040BDF80000B070BDF899
:2032E0000000000AF0705AE054BBE868016840460AF02CF802E01CBBE86800880221398051
:203300003070000A70704AE0E86809F06FF982B2A242B8BF4FF0070A41DB944208BF00228E
:2033200006D009EB04019142B2BF4A46121B92B23A80E9682144304608F0AEFE2FE014B11B
:203340004FF00B0A2BE0E8680721398001783170417871704188B1704188090AF170017988
:203360003171C1887171C088000AB07117E05846FFF70EFA00281CBFD0F800C0BCF1000F33
:203380000BD00F980290CDF8049000943B46324629464046E047824601E04FF00E0A504681
:2033A000BDE8FE8F204600202DE9FE438046894617461E4602A94846FEF758FA05002CD027
:2033C000BDF80800FFF7E4F900281CBFD0F804C0BCF1000F1FD00A980B9C0090019433463C
:2033E0003A4629464046E0470646B8B9FE2C15D02878022812D100F014F842F602118842A7
:203400000CD13878797800EB012082B24946404600F04AF802E00E2600E001263046BDE86F
:20342000FE8368680178407801EB002080B27047704700207047E0B58DF808200223120A04
:203440008DF80920FE2201920022009202AAFFF7ABFF0EBD7CB50129044605D0022922D1A8
:20346000012100F08EFEF0B92046FFF75BFE08B1FFF76DFE01A800904FF6FF750223194ABC
:2034800029460120FEF7C3F90BE0F0680168204609F064FFBDF80420002329463046FEF7A7
:2034A0000BFA0600F1D173BDF8B50F4F04463878FF280D46164611D00A2008F0F9FD68B122
:2034C000B12101704480002141700171C580068101463878BDE8F44008F0A8BEF1BD0000F9
:2034E000D8240100EC2401001D4600200A4610B5052A18BF042A03D0062A18BF072A08D10E
:203500000C24554B62431A4422F8301D9070002010BD022010BD38B50D460446288805282E
:2035200018BF042803D0062818BF072801D1686808B9022032BD0121204600F022FE08B9B4
:20354000142032BD4FF6FE7084420ED0204600F054FE2989884208D22888062803D13F48BA
:203560000088884201D21B2032BD3D48007800282946204603D0BDE8344000F095BABDE832
:20358000344000F047BA80B5364B009313460A4601212CE0E0B5019200230522009202930D
:2035A0000A46314B0A2100F0CBF90EBD70B50D4684B004461646EB88AA886988288804F009
:2035C00037F958B1002002900196042000902A46264B1221204600F0B3F900E0182004B0D3
:2035E00070BD80B5224B009313460A46132100F0D9F902BD38B504461E480129017011D1F1
:2036000016480088051DADB2012009F0E1FE94FBF5F082B2284601B0BDE83040002300212A
:2036200009F0DABEBDE83240002009F0D1BE03B510480078012881B003D102AA01A909F035
:20364000CFFE07BD054A001F10800548017070470248008870470000784300201E4600207E
:2036600032460020A93B0100993C0100273C01008D3C0100374300207047000010B59D4CCA
:20368000207000F099FC302200219B4808F002FD9A4960780978081860700006000D09F090
:2036A000A1FD606088B161780A01002108F0F2FC00206278C1B2914208D26168C0B201EB47
:2036C0000011FF224A72401CF3E76070207808F034F8BDE810400FF2292000F094BC30B5D6
:2036E0000C46200489B0834D0CD5287808F010FD050004D000F02AF8284608F0EEFC84F412
:20370000004021E0E0071ED500F097F930B1A878B0B12878012108F0CDFD11E0A97808000E
:203720001CBFE878FF280BD08DF80810652302A901910022002100914FF6FF7100F035FB41
:2037400084F0010000E0002009B030BD3EB504462078902849D16078132815D10020654ADF
:2037600006E0A368C0B233F8103059189170401CA5789178C3B2AB42F3D3002935D01078A9
:20378000012108F097FD37BD65882146684600F0E0F90199F9B1BDF80000052804D1694612
:2037A000284600F026F818E004281CBF0628072813D10C2250495043084430F8301D61B120
:2037C00080786A46294600F0CEFA30B9BDF8000004280AD005E0012803D1A06808B108F0DB
:2037E00032FC01212846FFF722FF37BD4149C8707047F0B50E4689B0044630890025042801
:2038000044DB716802A800F091F8BDF80A20182A63DA3189101D814235D19DF80800C0071B
:2038200036D57068071D9DF8090000F015FB06002CD035719DF8080001280BD0132821D16D
:203840003078042822D1BDF80A20394603A800F01EFA05E0BDF80A20394603A800F0C3F9F6
:203860000546304600F017FB03A80190002000902A469DF80830307A214600F096FA304655
:2038800000F0E3FA15B1204600F033FB09B0F0BD9DF80800122817D17068011D03A800F05B
:2038A000D8F90500EED1144881890029EAD003A9019100229DF809109DF80830807B0091C3
:2038C000214600F072FADDE79DF80910ADF800506A462046FFF757FED4E70120ADF80000DC
:2038E0001720ADF802006A469DF809102046FFF74AFECBE73046002078430020AC430020B6
:2039000010B504464FF6FE7084420ED0012906D002290AD10121204600F033FC28B920464D
:20392000BDE81040002100F0E5BA10BD0A7802704A7842708A78C97802EB012141807047E3
:203940002DE9FC410D4616461F460A9A0999044601AB00F051FA804608BB0199089808704E
:203960003346DFF818060178491CCAB2002A06BF012101220A460170294601980271009778
:2039800001980279204600F00DF8804620B901981E2100F076FA02E0019800F056FA4046A0
:2039A000BDE8F6812DE9F041044684B00E4617469846172000F0F0FA050026D00A9A1000D7
:2039C00003D04146281D904700E00020010A2E70E9706F70A8700521001DADF80800ADF8E3
:2039E000001001956946DFF8980500780028204602D000F059F801E000F00CF804462000A6
:203A000004D0284608F01FFB00E01324204604B0BDE8F08110B50B88DFF868250C24634379
:203A20001A44303A536833B94B685360098950811181002010BD162010BD80B5052000F082
:203A40000FF858B9062000F00BF838B9042000F007F818B9072000F003F800B1012002BDBD
:203A60000C2210B5DFF81C1542431144A1F1300484B06168A9B1DFF8082512787AB1ADF8F6
:203A80000000019169462089ADF80800608900F00BF810B1606808F0D6FA00206060012061
:203AA00000E0002004B010BD70B50D4604462889010004D0DFF8D0140988814201D21B2020
:203AC00070BD6868042108F091FA0646288930702889000A70702888B0702888000AF0701F
:203AE0002889051D4FF6FE70844213D10C2008F0DFFA01000CD0902008704C80022008712D
:203B0000CD808E60DFF88404007808F08FFB18E0132070BD3346AAB20021204609F064FC04
:203B2000010007D002280ED0072810D012280CD01F280DD1DFF8480401780A001CBF491E73
:203B40000170002070BD142070BD022070BD042070BD38B50446002060600879022821D1F2
:203B6000CA88042A1EDB886801784378C57801EB0321837889B203EB05230D1D95429BB2C1
:203B800010D1052B18BF042B03D0062B18BF072B08D1218123806FF0030108F027FA6060A7
:203BA000002032BD012032BD0B88037002220B881B0A43700B88012B06D14A8882700422D1
:203BC0004988090AC1700CE0022B0AD14A8882704A88120AC2708A88027106228988090A27
:203BE000417110467047022A1BDB0A784B7802EB032202800288012A05D18A78C97802EB50
:203C0000012141800BE0022A09D18A78CB7802EB032242800A79497902EB01218180002042
:203C20007047012070470A8802700A88120A42704A8882704A88120AC2708A8802718A8816
:203C4000120A4271CA888271C988090AC17108207047082A18D10A784B7802EB03220280E7
:203C600011F8022F4B7802EB0322428011F8022F4B7802EB0322828011F8022F497802EB7A
:203C80000121C180002070470120704705E0022A00D10EE00120704700BF0A880270098816
:203CA000090A417002207047022A00D101E0012070470A78497802EB012101800020704707
:203CC00080B54B8800F8013B04224B881B0A00F8013B0B8800F8013B0B881B0A00F8013BA3
:203CE0000B8873B94B88022B04D1496808F0E4FC082206E0032B04D10822091D08F0CCF987
:203D00000C22104602BD10B50446042A084628DB0178437801EB0321618010F8021F4378C9
:203D200001EB03212180801C21880B0013D16188022906D1082A14D1042108F0A6FC60601D
:203D40000DE0032908BF0C2A0BD101460822201D08F0A2F903E0012908BF042A01D100203C
:203D600010BD012010BDF8B504460D461646102008F09EF9070016D0A02038707D800020B1
:203D800078702EB10C223146381D08F085F904E00C220021381D08F07DF93946204608F019
:203DA00045FA0020F2BD0120F2BD2DE9F04180460D4616461F46202008F07AF9040019D06C
:203DC000A220207066706580069820716771079929B1182204F1080008F05EF904E01822B1
:203DE00004F1080008F056F921464046BDE8F04108F01CBABDE8F08170B51E0004460D46F8
:203E000021D0012100F0BDF9D8B161480078002100E0491CC9B2814211DA5E4B1B6803EB96
:203E200001125388002BF4D10020107001F14000508022B1D48015723260002070BD152040
:203E400070BD142070BD012070BD10B504461022002108F01FF923E0002200E0521C4C490C
:203E600009788A420BDA4B49096801EB02114B88002BF3D00B798342F0D10846704700201C
:203E800070474FF47A724A4300F1090301460FF2190008F0DBBC10B50446607A08F069FC7C
:203EA000FF20607210BD000010B504001CBF6088002807D01721204600F005F82046BDE823
:203EC0001040C2E710BD1CB50446207804280FD10020019000900A46E188207A1323FFF79D
:203EE00064FFE18802B0BDE81040122205202EE013BD072170B50446002539BB18E0254803
:203F00000068EDB200EB0516307800281CBF707AFF280CD0F088A04209D13046FFF7BBFFA2
:203F200014213046FFF7CFFF3046FFF78EFF6D1C17490978E8B28842E1D30425FF222146E6
:203F4000284600F004F86D1C082DF7DB70BD10B50C240C4B60431844A0F130046089884287
:203F60000AD1606840B1FF2A1CBF0178914203D108F069F80020606010BD0000A843002078
:203F800032460020784300201E46002030460020314600203446002080B5001D80B209F0E6
:203FA00027FA28B1BDE804406FF0030108F01EB802BD70470020704738B5BC4C0022002168
:203FC000204605F059FD20783025684309F00AF96060B8B100210AE005FB01F202444FF6EA
:203FE000FF735380491C00231371D362C9B222789142F1DB0020002104EB8002401C0C2845
:204000009160F9DB31BD0021A84A02EB8102936813B9906000207047491CC9B20C29F3DBF9
:20402000132070472DE9F04106460C4617469846204600F078F808B1112024E04FF6FF700E
:2040400000F071F805001DD085F8058006220699A81D08F021F80622002105F10C0008F033
:2040600019F86C802F712E700020E86200210898A8740998A8820A98E882204600F002F996
:20408000002000E01520BDE8F08110B500F04BF8040012D06088012100F0F4F8E06A08B10E
:2040A00009F0B1F830220021204607F0F3FF4FF6FF7060800020207110BD022010BD38B5AE
:2040C0000C46154600F02FF858B10179002D14BF2143A14301710221408800F0D3F8002019
:2040E00032BD152032BD38B50C4600F01CF8050017D028792070062268796070A91DA01CF2
:2041000007F0CAFF062205F10C0104F1080007F0C3FFA87CA073A88A2082E88A608200207F
:2041200032BD012032BD10B50022604B00E0521C1C78D1B2A14209D25968D2B2302454439B
:2041400021444C888442F2D1084610BD002010BDF0B5564B5C6800224FF6FF7700E0521C60
:2041600019788A420BDA302101FB02F561194E88BE42F4D0655D8542F1D10846F0BD00203F
:20418000F0BD10B50C464FF6FE71884206D0FFF7CAFF00281CBF0079204201D0012010BDAB
:2041A000002010BD80B5FFF7BEFF00B1807C02BD10B5002000213D4A08E05368C9B23024BF
:2041C0004C4323441B7903B1401C491C1478CBB2A342F2D3C0B210BD34480078704710B57E
:2041E0000C46FFF7A0FF00281CBFC18AA14202D0C482002010BD012010BD80B5FFF793FFF7
:2042000000B1C08A02BD70B506460C461546FFF78AFF28B94FF6FE7086421BD0142070BD9F
:20422000C16AA9B10079C20601D40F2070BD204A127813001CBF01251024830700D43DB9F7
:20424000897EA14201D20C2070BD1AB1800601D4052070BD002070BD70B5040011D0002653
:20426000124D0BE068683021714308444FF6FF724188914218BFA047761CF6B22878864221
:20428000F0DB70BD70B504460D460026074800EB86008268100002D0294620469047761C74
:2042A0000C2EF3DB70BD024908707047AC430020A943002038B504000D4618BF002D01D11A
:2042C000022032BD0321684600F037F900F030F82A466946204600F079F8040004D10322DF
:2042E0006946E81C07F0D8FE204632BD30B504000D4618BF002D83B001D102203EBD032262
:20430000E91C684607F0C8FE00F012F801AA6946204600F05BF8010009D10322294601A818
:2043200008F094F9012801D100203EBD01203EBD9DF8021001F03F0141F040018DF80210E5
:20434000704730B50C46002818BF002C8DB0154600D00DB9022011E00146102200F033F86F
:204360001022214604A808F04BF900F05DF80446102208A9284608F043F920460DB030BD98
:2043800080B52020FBF77DFB40B10246DFF85C090078BDE80840012107F0C2BC01BDDFF838
:2043A0004C090078012107F0D8BC70B58CB000F020F800F006F8280A8DF81E008DF81F5063
:2043C000ABE010222146684608F01AB970B58CB000F00FF8FFF7F5FF032229460DF11D004F
:2043E00008F00EF900F020F8044603220DF12D0198E004460D46164630220021684607F092
:2044000049BE70B58CB0FFF7F4FFFFF7DAFF00F08FF800F009F89DF82F109DF82E2001EB71
:20442000022131800CB070BD6846D0E0F0B595B005460C4616461F463022002108A807F0FF
:2044400029FE1022294608A808F0DAF810220021684607F01FFE07223146FFF7B4FF072293
:2044600039460DF1070008F0CBF81C9901B101218DF80E101A9901B101218DF80F10102274
:20448000002104A807F006FE1B99062205A808F0B7F81D9906220DF11A0008F0B1F810225B
:2044A00021460CA808F0ACF869460CA800F01AF808A800F08CF80446102210A90CA807F0DC
:2044C000EBFD04A90CA800F00DF808A800F07FF805461E98102210A908F092F845EA0400E6
:2044E00015B0F0BD10B51022037811F8014B6340521E00F8013BF7D110BD70B50C468CB0F4
:20450000154601461E461022FFF75DFF0822214604A808F075F800F00BF8FFF785FF0446B8
:20452000102208A9304608F06BF820460CB070BD0822294606A808F063B870B504460D465C
:2045400000260BE008F06AF8F6B2010AA155761CF1B2A94202D2F6B2A055761CF0B2A84298
:20456000F0D370BD00688208920000F0030102F004021143C208D20002F008021143020990
:20458000120102F010021143400941EA4010C0B270470268920841EA820222F004038A0865
:2045A00002F0010243EA820222F00803CA0802F0010243EAC20222F0F0030A0902F0010273
:2045C00043EA0212490942EA41110160704700F1200200F1100108F00FBF2DE9F047070083
:2045E000144614BF002C022088B089463FD009F10405A8B208F0F6FD060036D0FBF78BFB5E
:2046000080464A463946301D07F0FAFF86F803804FEA1827B7704FEA184986F801904FEA06
:20462000186A86F800A0FBF773FB0146102203A807F0E6FF0820009001ABAAB2314603A898
:2046400000F083F805000DD184F80080677084F8029084F803A0082201A9201D07F0D0FF35
:20466000FBF75DFB00F06EF800E01325284608B0BDE8F0872DE9F04F89B015001CBF129F11
:20468000002F80460E469A4615D0FFF74CFD040008BF142055D03878797800EB0120B978CB
:2046A00000EB0140F97800EB0169A06A484504D310F1010F01D0022043E026B1207980077C
:2046C00058BF01203DD50822002101A807F0E2FC0AF1040B1FFA8BF008F084FD060008BFE3
:2046E00013202ED052462946301D07F089FF04223946304607F084FF102204F1180105A834
:2047000007F07EFF0820009001AB1FFA8BF2314605A800F01AF8050010D1082201A903A8A0
:2047200007F06EFF0822391D03A807F08FFF012811BF012549464046FBF74AFD00F002F80E
:204740002846F0E1304608F05EBD2DE9FA4F834685B0924600F0F2F9814600F0EFF9B9F138
:20476000000F804608BF132400F0BF80B8F1000F08BF132400F0B78000F0E0F9064600F055
:20478000DDF905460EB9132434E00DB913242FE01022002107F07EFC324629465846FFF79B
:2047A0001AFF040024D130780FF26457000604D44946304600F0B1F808E02946304600F04A
:2047C000ACF84A463946284600F09DF899F80000000604D44146484600F09FF808E02946D1
:2047E000484600F09AF842463946284600F08BF8FFF7A8FF0DB100F0F9F8200073D100F031
:204800009DF9054600F09AF906460DB9132467E00EB9132462E0514601F10F00C21000EB0F
:2048200012700003001403D14FF0000A00220AE0CA0801EB12721209A1EB0212521E924176
:20484000D20FA0F1010A4FEA0A10059B80B2184422B13246494600F056F818E0CA0801EB8C
:2048600012721209A1EB02110022C9B28A42B8BF835C02DB0CBF802300230DF80230521C28
:20488000102AF3DB32464146684600F03CF810220021284607F0FEFB00270BE005983901A5
:2048A00089B201446A46284600F02DF800F027F804467F1C3FB2574501DA2000EED02000EB
:2048C0000CD16A463146284600F01DF800F017F80446109A0698294607F0DEFB00F086F823
:2048E0000EB1FFF72FFF00F021F9B8F1000F1CBF404608F088FC204607B0BDE8F08F2A4685
:204900006946584667E630B50023C45CCD5C6C40D4545B1C102BF8DB30BD10B500220F234D
:20492000C45C42EA4402CA54C25CD2095B1EF7D510BD2DE9FC475FEA00080E4618BF002EB9
:20494000174604D0002F1CBF0A9C002C01D102204AE0412008F046FC050010D000F0EEF8D6
:204960005FEA000908BF284607D000F0E7F85FEA000A06D100F03AF8484608F044FC1320C5
:2049800032E041220021284607F084FB10220021484607F07FFB20224146284607F030FEEF
:2049A00005F1200820223146404607F029FE012201A908F1200007F023FE10223946504637
:2049C00007F01EFE102000904B464122294600F095F91022494600F0B6F800F007F800F0E5
:2049E000A5F800F01DF90020BDE8F687284608F00ABC2DE9F64F87B004464FF48070ADF8F2
:204A000004001D4603A80FF2F821102206F0F0FEB7480290002C1CBF079800280AD008987B
:204A2000002818BF002D05D0129E002E1CBF139F002F01D1022076E0352008F0D3FB5FEA2D
:204A4000000B1ED0202008F0CDFB5FEA000808BF584614D000F072F85FEA000904D15846A4
:204A600008F0D1FB40460AE000F068F85FEA000A09D1584608F0C7FB00F0D5F8484608F0EA
:204A8000C2FB13204FE020220021404607F002FB102203A9484607F0B3FD00F04AF81020A5
:204AA00000905346202259464846FFF74EFE5C46002004F8010B042202A9204607F0A0FD87
:204AC000241D0799102200F03EF810340899102200F039F8103400F034F8E41D0722314664
:204AE00000F031F8022201A9E01D07F089FD10200090434600F000F901208BF8000008F186
:204B000010031020009000F0F7F82022414600F08EF8584608F077FB00F085F800F006F841
:204B200000F07EF8002009B0BDE8F08F484608F06ABB20222146584607F062BD102008F0E2
:204B400051BB07222946204607F05ABD2DE9FD4F0F46002818BF002F82B011D0002A18BF44
:204B6000002B0DD00E9C002C1CBF0F9D002D07D0109E002E1CBFDDF844B0BBF1000F01D1BF
:204B800002204AE0412008F02DFB5FEA000810D0FFF7D4FF5FEA000908BF404607D0FFF7E2
:204BA000CDFF5FEA000A06D100F03DF8484608F02AFB132031E010223946404607F020FDA0
:204BC00008F11007039900F031F81037049900F02DF810370322214600F029F8FC1CFFF725
:204BE000B0FF07223146E01D07F00AFD02991022504607F005FD102000904B4641224146D4
:204C000000F07CF810224946FFF795FF00F00BF8FFF78CFF00F004F8002005B0BDE8F08F8C
:204C2000504608F0F0BA404608F0EDBA1022384607F0E6BC2DE9F84F5FEA000B0C4618BFF4
:204C4000002C15461E4605D0002D18BF002E01D00A9F0FB9022047E0502008F0C3FA5FEA69
:204C6000000810D0FFF76AFF5FEA000908BF404607D0FFF763FF5FEA000A06D1FFF7D3FF2D
:204C8000484608F0C0FA13202EE020225946404607F0B6FC08F1200BFFF74BFF1022314676
:204CA0000BF1200007F0ACFC10222946504607F0A7FC102000904B465022414600F01EF818
:204CC000042209F10C01FFF7B2FF38680949094AB0FBF1F102FB11003860FFF7A4FFFFF7F9
:204CE00025FFFFF79DFF0020BDE8F28F50460020656C746240420F0035225946504624E535
:204D0000BE83605ADB0B376038A5F5AA9183886C0000000000000000000000000000008710
:204D20002DE9F047DFF83C6C04460025706C884692461F46A94608B1112036E06FB1212001
:204D4000FAF79FFE97F89C10814206D32220FAF798FE97F89C10884201D2022025E07C208A
:204D600008F040FA706408B913201EE07C22002107F090F9716C4D70706C0470706C80F8BE
:204D80000280706CA0F806A08766C56605711CB100F018FA0546A946716C01204870B9F180
:204DA000000F18BF00F062FD2846BDE8F08770B5DFF8B05B6B6C82B0002443B11A79022A4D
:204DC00018BF032A05D0042A18BF062A01D0122076BDDE888E4201D0022076BD062A12D120
:204DE000006840B11878002819BFE86CC068A86C4069804748E00C208DF800006946D888E2
:204E000000F0DBF840E00146102203F1080007F043F9686C10212830FFF78FFB686CC1781D
:204E2000090716D580F87040686C00F1180100F17006009132788168D14001F0010100F1F1
:204E4000280241F080037068B1682030FFF771FD06E000F1180200F12801083000F02CF977
:204E6000686C417802781AB103290DD1022107E0042902D10221417006E0032904D105216B
:204E8000417000F0B7F90446204676BDDFF8D41AC8647047DFF8CC1A88647047DFF8C42A11
:204EA000526C02B9704780B5D288824208BF012908D100F0DBFC012000F04FFBBDE801409D
:204EC00000F06EBD01BD172000F0FFBC70B592B0044600208DF80000A0680578691E0D297F
:204EE00048D8DFE801F007071014181C2024282C3034383C01A901F076FB122832D1062194
:204F00008DF800102EE001A901F0E0FB2AE001A901F0F8FB26E001A901F007FC22E001A990
:204F200001F01BFC1EE001A901F034FC1AE001A901F05AFC16E001A901F061FC12E001A92B
:204F400001F074FC0EE001A901F089FC0AE001A901F09FFC06E001A901F0BCFC02E001A9FD
:204F600001F0CEFCD8B96088FFF7DDF8052628B9082612E007208DF8000013E0827CDFF892
:204F8000E419082A0CBFC96C896C31B10B68190003D001AA2946984706468DF800609DF8ED
:204FA000000020B16088694600F007F803E00B2D18BFFFF7E5F912B070BD38B50C46DFF8CF
:204FC000A8392246022101F0A5FC0546207800F07CFC284632BD70B5DFF888490646606C46
:204FE00000280D463FD0C188B1423CD14178062930D1017811B3816ED1F89810C26ECB0756
:2050000004D5137BDB0748BF072113D4C1F34003002B1FBFD368C3F34003002B092109D1CE
:20502000C1F3800100291EBFD168C1F38001002902D00B21417007E0E06C00E0A06C18B107
:205040004068010018BF8047606C4078122818D1002005E0112906D1280018BF3225284688
:2050600000F033FC0DE0280007D13046FFF75BF818B1017941F01001017131462846FBF797
:2050800098FA012070BD10B5DFF8D848606C90B1007800280CBFA06CE06C18B14068010032
:2050A00018BF8047606C4078122804D1BDE81040002000F00ABC10BD2DE9F34FDFF8A468EC
:2050C000706C8DB0904608B912203FE0C088FFF72AF8050008BF142038D009A800F021FCA9
:2050E000706C017871B1D0F86CA0FAF725FE040018BF012400F0B8F96F7909AE814605F154
:20510000060B0DE0C66EFAF717FE070018BF012700F0AAF96C790DF1240A834605F10609DF
:2051200007A9504601F008FA05A9304601F000FACDF81080CDF80CB00297CDF804900094CB
:205140000E990D9805AB07AAFFF770F90FB0BDE8F08F70B5DFF80C580446A86C86B0002844
:205160001CBF006800280E461CD030788DF8040070788DF8050002A8B178FFF70AFAF078AC
:20518000AB6C8DF80C0001AA7068049001211B6820469847010005D08DF800006946608874
:2051A000FFF70BFF06B070BD38B5DFF8B847E46C34B1A5682C0003D0049C0094A84732BDF6
:2051C000022032BD1FB500F011F980B1684600F0A8FB616CC8880978002914BFDFF88C374A
:2051E000DFF88C376A46072101F094FB00E0012004B010BD1FB500F004F8606CDFF874372D
:2052000012E0DFF86047606C00F118011022684606F042BF1FB500F0E9F800F12801FFF7BC
:20522000F5FF606CDFF8503700F02AF904B010BD38B5DFF830570446686C806F20222146BB
:2052400006F02AFF04F12001686C806FBDE838402022203006F020BF10B500F0C7F890B01E
:20526000406F20220021203007F002FA08B1012017E0606C406F00F120012022684606F095
:205280000BFF606C406F00F14001202208A806F003FF606CDFF8E436C0886A46412101F065
:2052A00039FB10B010BD70B5DFF8B8460546606C8EB0406F0E4620220021603007F0D8F920
:2052C000B8B91C2007F08EFF616C886588B102A904A800F08FF860B906A8019004AB02A82B
:2052E00000903246606C406F29466030FFF781FB08B108201AE0606C806D102206A906F04F
:20530000CBFE606C406F10220AA9803006F0C4FE606C806D002101820822123006F0BAFE85
:2053200000F0EEFA616C896D887600200EB070BD2DE9F041DFF82C7604468AB0786C0D464E
:20534000904604AE7BB1816E09788DF81010816E49787170816E91F89510B17000F11806A6
:205360000078A0B910E0C06E001DFFF7FBF8796CCA6E12788DF81020CA6E52787270B070D8
:2053800001F13806087810B107A905A801E005A907A800F02FF801000ED1039605A8029032
:2053A000434607A801902A4604A800902146786C406F8030FFF7CAFB0AB0BDE8F08110B57E
:2053C00000F014F888B1806F08B107F01CFF402007F008FF616C8867486F08B107F013FF4B
:2053E000902007F0FFFE616C486710BDDFF87445606C7047F8B5DFF86C650546706CC088E9
:205400000C46FEF790FE070001D11420F2BD706C007890B100F028F801460622284606F083
:205420003BFE0622B91D204606F036FEFAF784FC00B10120A871787911E00622B91D2846FB
:2054400006F02AFE00F010F801460622204606F023FE787900B10120A871FAF76DFC00B163
:205460000120A0710020F2BD0020FAF768BC1FB5FFF7C7FE606CDFF8083500F001F81FBDC2
:20548000C0886A46112101F045BA10B5DFF8D444616C00291CBF486F002832D08A6E92F80A
:2054A0003420AAB1DFF8DC04082202702022896E353106F0F1FD606C816E406F2022553135
:2054C000203006F0E9FD606C816E2022753110E06178FF2913D02278130001D091420ED2F8
:2054E0002022A11C203006F0D7FD606C202204F12201406F403006F0CFFD012010BD02F0AC
:205500007FFA002010BD38B5402007F06BFE040018D0DFF85054686C816F2022204606F0AF
:20552000BBFD686C806F00F12001202204F1200006F0B2FD204602F06DFA2046BDE83240A6
:2055400007F061BE31BD0246DFF818144B7808709A4288BF1A464A70704710B5DFF8041419
:205560004A78FF2A1CBF0C78FF2C134607D008B95B1C04E0D01C8442B4BF2346DB1C4B702A
:2055800010BD10B5FFF732FF86B0816E91F82220002A01BFC26E5278012A022023D04A787C
:2055A00092B1806F01AA009200238A1C0146FFF7C0F9606C806E102201A9123007F046F8B0
:2055C000012818BF04200ED1606CC16E497821B9806E1022233006F05DFD606C102128301A
:2055E000FEF7ABFF002006B010BDF8B5DFF874630446706CC06E0025002840F00381102089
:2056000007F0F0FD716C0028C86600F0F9808F6E1022214606F040FD706C0178002940F093
:205620008E80C16ED7F8982011F80CCF02F001030CF0010C634518BF0023520843EA420256
:20564000C7F89820C2F34003D1F800C0CCF3400C634506BF530803F00103002322F002024F
:2056600042EA4302C7F89820C2F38003D1F800C0CCF3800C634506BF930803F00103002314
:2056800022F0040242EA8302C7F89820C2F3C003D1F800C0CCF3C00C634506BFD30803F003
:2056A0000103002322F0080242EAC302C7F89820C2F30023D1F800C0CCF3002C634506BF86
:2056C000130A03F00103002322F4807242EA0322C7F89820C2F34023D1F800C0CCF3402CF7
:2056E000634506BF530A03F00103002322F4007242EA4322C7F89820C2F38023D1F800C055
:20570000CCF3802C634506BF930A03F00103002322F4806242EA8322C7F89820C2F3C02322
:205720000968C1F3C0218B4206BFD10A01F00101002122F4006242EAC121C7F89810816E06
:2057400091F89520120718D5C26E5268C2F3C0029AB1C17841F00801C170D7F898008A497B
:205760000840C7F89800706CC06EC16821F48071C16049084900C16003E091F833000128AD
:205780003CD0627810001CBF7878002808D1706CC1780B0708D5002A04BF7A78002A03D067
:2057A000716C052008712EE06268C2F380023AB997F8952012F0040208BF01211CD01DD05E
:2057C0000278002A19BF3A7823783B782278052AB8BF052B12DA090708D5042A18BF012AD4
:2057E00004D1042B14BF012B062105D00FF2DC1103EB83031944895C017104E0182502E091
:20580000132500E011252846F2BD0A465F4B15E010B586B00446ADF800101046014608226D
:205820000DF1020006F038FC594B6A460B21204601F070F806B010BD0A46564B112101F068
:2058400069B81CB58DF8001004461046014606220DF1010006F020FC4F4B6A4608212046C8
:2058600001F058F813BD0A464C4BE7E710B5FFF7BDFD30B3C06E08B107F0C5FC606C806DB2
:2058800008B107F0C0FC606CC06D08B107F0BBFC606C006E08B107F0B6FC606C406E08B16D
:2058A00007F0B1FC606C406F08B107F0ACFC606C806F08B107F0A7FC606C07F0A4FC0020E0
:2058C0006064BDE81040FEF76ABD1FB504462548406CA0B1416E0391016E0291C16D019166
:2058E000816D0091C378C28801782046FAF7EBFEFFF7BCFF204604B0BDE810402DE61FBD3C
:205900001849496C102000291CBFCA6E002A07D0896E29B191F89C00117A814238BF08467B
